{
  "_format": "hh-sol-artifact-1",
  "contractName": "MetaLinks",
  "sourceName": "contracts/MetaLinks.sol",
  "abi": [
    {
      "inputs": [],
      "stateMutability": "nonpayable",
      "type": "constructor"
    },
    {
      "anonymous": false,
      "inputs": [
        {
          "indexed": true,
          "internalType": "uint256",
          "name": "id",
          "type": "uint256"
        },
        {
          "indexed": true,
          "internalType": "address[]",
          "name": "newAddresses",
          "type": "address[]"
        }
      ],
      "name": "AvatarAddressAdded",
      "type": "event"
    },
    {
      "anonymous": false,
      "inputs": [
        {
          "indexed": true,
          "internalType": "uint256",
          "name": "avatarID",
          "type": "uint256"
        },
        {
          "indexed": true,
          "internalType": "string",
          "name": "name",
          "type": "string"
        },
        {
          "indexed": true,
          "internalType": "string",
          "name": "aka",
          "type": "string"
        },
        {
          "indexed": false,
          "internalType": "string",
          "name": "bio",
          "type": "string"
        },
        {
          "indexed": false,
          "internalType": "string",
          "name": "avatar",
          "type": "string"
        }
      ],
      "name": "AvatarCreated",
      "type": "event"
    },
    {
      "anonymous": false,
      "inputs": [
        {
          "indexed": true,
          "internalType": "uint256",
          "name": "id",
          "type": "uint256"
        },
        {
          "indexed": true,
          "internalType": "string",
          "name": "name",
          "type": "string"
        },
        {
          "indexed": true,
          "internalType": "string",
          "name": "aka",
          "type": "string"
        },
        {
          "indexed": false,
          "internalType": "string",
          "name": "universe",
          "type": "string"
        },
        {
          "indexed": false,
          "internalType": "string",
          "name": "link",
          "type": "string"
        },
        {
          "indexed": false,
          "internalType": "string",
          "name": "avatar",
          "type": "string"
        },
        {
          "indexed": false,
          "internalType": "bool",
          "name": "active",
          "type": "bool"
        }
      ],
      "name": "MetaLinkAdded",
      "type": "event"
    },
    {
      "anonymous": false,
      "inputs": [
        {
          "indexed": true,
          "internalType": "address",
          "name": "previousOwner",
          "type": "address"
        },
        {
          "indexed": true,
          "internalType": "address",
          "name": "newOwner",
          "type": "address"
        }
      ],
      "name": "OwnershipTransferred",
      "type": "event"
    },
    {
      "inputs": [
        {
          "internalType": "address[]",
          "name": "addresses",
          "type": "address[]"
        }
      ],
      "name": "addAvatarAddress",
      "outputs": [
        {
          "internalType": "bool",
          "name": "",
          "type": "bool"
        }
      ],
      "stateMutability": "nonpayable",
      "type": "function"
    },
    {
      "inputs": [
        {
          "internalType": "string",
          "name": "name",
          "type": "string"
        },
        {
          "internalType": "string",
          "name": "aka",
          "type": "string"
        },
        {
          "internalType": "string",
          "name": "universe",
          "type": "string"
        },
        {
          "internalType": "string",
          "name": "avatar",
          "type": "string"
        },
        {
          "internalType": "string",
          "name": "link",
          "type": "string"
        },
        {
          "internalType": "bool",
          "name": "active",
          "type": "bool"
        }
      ],
      "name": "addMetaLinkMetalink",
      "outputs": [
        {
          "internalType": "bool",
          "name": "",
          "type": "bool"
        }
      ],
      "stateMutability": "nonpayable",
      "type": "function"
    },
    {
      "inputs": [
        {
          "internalType": "address",
          "name": "",
          "type": "address"
        }
      ],
      "name": "addressesToMID",
      "outputs": [
        {
          "internalType": "uint256",
          "name": "",
          "type": "uint256"
        }
      ],
      "stateMutability": "view",
      "type": "function"
    },
    {
      "inputs": [
        {
          "internalType": "string",
          "name": "name",
          "type": "string"
        },
        {
          "internalType": "string",
          "name": "aka",
          "type": "string"
        },
        {
          "internalType": "string",
          "name": "bio",
          "type": "string"
        },
        {
          "internalType": "string",
          "name": "avatar",
          "type": "string"
        }
      ],
      "name": "createAvatar",
      "outputs": [
        {
          "internalType": "uint256",
          "name": "",
          "type": "uint256"
        }
      ],
      "stateMutability": "nonpayable",
      "type": "function"
    },
    {
      "inputs": [
        {
          "internalType": "uint256",
          "name": "id",
          "type": "uint256"
        }
      ],
      "name": "getAvatar",
      "outputs": [
        {
          "internalType": "string",
          "name": "",
          "type": "string"
        },
        {
          "internalType": "string",
          "name": "",
          "type": "string"
        },
        {
          "internalType": "string",
          "name": "",
          "type": "string"
        },
        {
          "internalType": "string",
          "name": "",
          "type": "string"
        },
        {
          "internalType": "uint256[]",
          "name": "links",
          "type": "uint256[]"
        }
      ],
      "stateMutability": "view",
      "type": "function"
    },
    {
      "inputs": [
        {
          "internalType": "address",
          "name": "addrss",
          "type": "address"
        }
      ],
      "name": "getAvatarID",
      "outputs": [
        {
          "internalType": "uint256",
          "name": "",
          "type": "uint256"
        }
      ],
      "stateMutability": "view",
      "type": "function"
    },
    {
      "inputs": [],
      "name": "getMyAvatarID",
      "outputs": [
        {
          "internalType": "uint256",
          "name": "",
          "type": "uint256"
        }
      ],
      "stateMutability": "view",
      "type": "function"
    },
    {
      "inputs": [
        {
          "internalType": "uint256",
          "name": "",
          "type": "uint256"
        }
      ],
      "name": "midsToAvatars",
      "outputs": [
        {
          "internalType": "string",
          "name": "name",
          "type": "string"
        },
        {
          "internalType": "string",
          "name": "aka",
          "type": "string"
        },
        {
          "internalType": "string",
          "name": "bio",
          "type": "string"
        },
        {
          "internalType": "string",
          "name": "avatar",
          "type": "string"
        }
      ],
      "stateMutability": "view",
      "type": "function"
    },
    {
      "inputs": [
        {
          "internalType": "uint256",
          "name": "",
          "type": "uint256"
        }
      ],
      "name": "midsToMetaLinks",
      "outputs": [
        {
          "internalType": "string",
          "name": "name",
          "type": "string"
        },
        {
          "internalType": "string",
          "name": "aka",
          "type": "string"
        },
        {
          "internalType": "string",
          "name": "universe",
          "type": "string"
        },
        {
          "internalType": "string",
          "name": "link",
          "type": "string"
        },
        {
          "internalType": "string",
          "name": "avatar",
          "type": "string"
        },
        {
          "internalType": "bool",
          "name": "active",
          "type": "bool"
        }
      ],
      "stateMutability": "view",
      "type": "function"
    },
    {
      "inputs": [],
      "name": "owner",
      "outputs": [
        {
          "internalType": "address",
          "name": "",
          "type": "address"
        }
      ],
      "stateMutability": "view",
      "type": "function"
    },
    {
      "inputs": [],
      "name": "renounceOwnership",
      "outputs": [],
      "stateMutability": "nonpayable",
      "type": "function"
    },
    {
      "inputs": [],
      "name": "totalAvatars",
      "outputs": [
        {
          "internalType": "uint256",
          "name": "",
          "type": "uint256"
        }
      ],
      "stateMutability": "view",
      "type": "function"
    },
    {
      "inputs": [],
      "name": "totalMetaLinks",
      "outputs": [
        {
          "internalType": "uint256",
          "name": "",
          "type": "uint256"
        }
      ],
      "stateMutability": "view",
      "type": "function"
    },
    {
      "inputs": [
        {
          "internalType": "address",
          "name": "newOwner",
          "type": "address"
        }
      ],
      "name": "transferOwnership",
      "outputs": [],
      "stateMutability": "nonpayable",
      "type": "function"
    }
  ],
  "bytecode": "0x608060405234801561001057600080fd5b5061002d61002261003260201b60201c565b61003a60201b60201c565b6100fe565b600033905090565b60008060009054906101000a900473ffffffffffffffffffffffffffffffffffffffff169050816000806101000a81548173ffffffffffffffffffffffffffffffffffffffff021916908373ffffffffffffffffffffffffffffffffffffffff1602179055508173ffffffffffffffffffffffffffffffffffffffff168173ffffffffffffffffffffffffffffffffffffffff167f8be0079c531659141344cd1fd0a4f28419497f9722a3daafe3b4186f6b6457e060405160405180910390a35050565b61246d806200010e6000396000f3fe608060405234801561001057600080fd5b50600436106100ea5760003560e01c80637a2b87121161008c578063a0e5deed11610066578063a0e5deed14610291578063b48375e4146102c1578063baea526f146102df578063f2fde38b146102fd576100ea565b80637a2b87121461021057806386e7e492146102435780638da5cb5b14610273576100ea565b80635a4f0b2f116100c85780635a4f0b2f146101885780636ac156db146101b8578063715018a6146101d6578063787ee815146101e0576100ea565b80631328ec9b146100ef5780633c3ca3571461012357806352cfbb4314610153575b600080fd5b61010960048036038101906101049190611a1f565b610319565b60405161011a959493929190611dcf565b60405180910390f35b61013d6004803603810190610138919061182f565b610610565b60405161014a9190611f49565b60405180910390f35b61016d60048036038101906101689190611a1f565b610890565b60405161017f96959493929190611e45565b60405180910390f35b6101a2600480360381019061019d91906117b9565b610b81565b6040516101af9190611f49565b60405180910390f35b6101c0610bca565b6040516101cd9190611f49565b60405180910390f35b6101de610bd0565b005b6101fa60048036038101906101f591906117b9565b610c58565b6040516102079190611f49565b60405180910390f35b61022a60048036038101906102259190611a1f565b610c70565b60405161023a9493929190611d6e565b60405180910390f35b61025d600480360381019061025891906117e6565b610ec0565b60405161026a9190611cc2565b60405180910390f35b61027b61105e565b6040516102889190611ca7565b60405180910390f35b6102ab60048036038101906102a69190611906565b611087565b6040516102b89190611cc2565b60405180910390f35b6102c961136b565b6040516102d69190611f49565b60405180910390f35b6102e76113b2565b6040516102f49190611f49565b60405180910390f35b610317600480360381019061031291906117b9565b6113b8565b005b60608060608060606000600460008881526020019081526020016000206040518060a001604052908160008201805461035190612169565b80601f016020809104026020016040519081016040528092919081815260200182805461037d90612169565b80156103ca5780601f1061039f576101008083540402835291602001916103ca565b820191906000526020600020905b8154815290600101906020018083116103ad57829003601f168201915b505050505081526020016001820180546103e390612169565b80601f016020809104026020016040519081016040528092919081815260200182805461040f90612169565b801561045c5780601f106104315761010080835404028352916020019161045c565b820191906000526020600020905b81548152906001019060200180831161043f57829003601f168201915b5050505050815260200160028201805461047590612169565b80601f01602080910402602001604051908101604052809291908181526020018280546104a190612169565b80156104ee5780601f106104c3576101008083540402835291602001916104ee565b820191906000526020600020905b8154815290600101906020018083116104d157829003601f168201915b5050505050815260200160038201805461050790612169565b80601f016020809104026020016040519081016040528092919081815260200182805461053390612169565b80156105805780601f1061055557610100808354040283529160200191610580565b820191906000526020600020905b81548152906001019060200180831161056357829003601f168201915b50505050508152602001600482018054806020026020016040519081016040528092919081815260200182805480156105d857602002820191906000526020600020905b8154815260200190600101908083116105c4575b505050505081525050905080600001518160200151826040015183606001518460800151955095509550955095505091939590929450565b600080600360003373ffffffffffffffffffffffffffffffffffffffff1673ffffffffffffffffffffffffffffffffffffffff1681526020019081526020016000205414610693576040517f08c379a000000000000000000000000000000000000000000000000000000000815260040161068a90611f09565b60405180910390fd5b6000600180546106a39190612079565b905080600360003373ffffffffffffffffffffffffffffffffffffffff1673ffffffffffffffffffffffffffffffffffffffff1681526020019081526020016000208190555060006040518060a00160405280888152602001878152602001868152602001858152602001600067ffffffffffffffff811115610729576107286122cf565b5b6040519080825280602002602001820160405280156107575781602001602082028036833780820191505090505b5081525090508060046000848152602001908152602001600020600082015181600001908051906020019061078d92919061157c565b5060208201518160010190805190602001906107aa92919061157c565b5060408201518160020190805190602001906107c792919061157c565b5060608201518160030190805190602001906107e492919061157c565b506080820151816004019080519060200190610801929190611602565b5090505060016000815480929190610818906121cc565b91905055508560405161082b9190611c90565b6040518091039020876040516108419190611c90565b6040518091039020837f4dc183066ea1df4e44c1bf7791d30dc7c6115e88c10838793e3be56fad008924888860405161087b929190611cdd565b60405180910390a48192505050949350505050565b60056020528060005260406000206000915090508060000180546108b390612169565b80601f01602080910402602001604051908101604052809291908181526020018280546108df90612169565b801561092c5780601f106109015761010080835404028352916020019161092c565b820191906000526020600020905b81548152906001019060200180831161090f57829003601f168201915b50505050509080600101805461094190612169565b80601f016020809104026020016040519081016040528092919081815260200182805461096d90612169565b80156109ba5780601f1061098f576101008083540402835291602001916109ba565b820191906000526020600020905b81548152906001019060200180831161099d57829003601f168201915b5050505050908060020180546109cf90612169565b80601f01602080910402602001604051908101604052809291908181526020018280546109fb90612169565b8015610a485780601f10610a1d57610100808354040283529160200191610a48565b820191906000526020600020905b815481529060010190602001808311610a2b57829003601f168201915b505050505090806003018054610a5d90612169565b80601f0160208091040260200160405190810160405280929190818152602001828054610a8990612169565b8015610ad65780601f10610aab57610100808354040283529160200191610ad6565b820191906000526020600020905b815481529060010190602001808311610ab957829003601f168201915b505050505090806004018054610aeb90612169565b80601f0160208091040260200160405190810160405280929190818152602001828054610b1790612169565b8015610b645780601f10610b3957610100808354040283529160200191610b64565b820191906000526020600020905b815481529060010190602001808311610b4757829003601f168201915b5050505050908060050160009054906101000a900460ff16905086565b6000600360008373ffffffffffffffffffffffffffffffffffffffff1673ffffffffffffffffffffffffffffffffffffffff168152602001908152602001600020549050919050565b60015481565b610bd86114b0565b73ffffffffffffffffffffffffffffffffffffffff16610bf661105e565b73ffffffffffffffffffffffffffffffffffffffff1614610c4c576040517f08c379a0000000000000000000000000000000000000000000000000000000008152600401610c4390611ee9565b60405180910390fd5b610c5660006114b8565b565b60036020528060005260406000206000915090505481565b6004602052806000526040600020600091509050806000018054610c9390612169565b80601f0160208091040260200160405190810160405280929190818152602001828054610cbf90612169565b8015610d0c5780601f10610ce157610100808354040283529160200191610d0c565b820191906000526020600020905b815481529060010190602001808311610cef57829003601f168201915b505050505090806001018054610d2190612169565b80601f0160208091040260200160405190810160405280929190818152602001828054610d4d90612169565b8015610d9a5780601f10610d6f57610100808354040283529160200191610d9a565b820191906000526020600020905b815481529060010190602001808311610d7d57829003601f168201915b505050505090806002018054610daf90612169565b80601f0160208091040260200160405190810160405280929190818152602001828054610ddb90612169565b8015610e285780601f10610dfd57610100808354040283529160200191610e28565b820191906000526020600020905b815481529060010190602001808311610e0b57829003601f168201915b505050505090806003018054610e3d90612169565b80601f0160208091040260200160405190810160405280929190818152602001828054610e6990612169565b8015610eb65780601f10610e8b57610100808354040283529160200191610eb6565b820191906000526020600020905b815481529060010190602001808311610e9957829003601f168201915b5050505050905084565b600080600360003373ffffffffffffffffffffffffffffffffffffffff1673ffffffffffffffffffffffffffffffffffffffff1681526020019081526020016000205411610f43576040517f08c379a0000000000000000000000000000000000000000000000000000000008152600401610f3a90611f29565b60405180910390fd5b6000600360003373ffffffffffffffffffffffffffffffffffffffff1673ffffffffffffffffffffffffffffffffffffffff16815260200190815260200160002054905060005b83518163ffffffff161015611010578160036000868463ffffffff1681518110610fb757610fb66122a0565b5b602002602001015173ffffffffffffffffffffffffffffffffffffffff1673ffffffffffffffffffffffffffffffffffffffff16815260200190815260200160002081905550808061100890612215565b915050610f8a565b508260405161101f9190611c79565b6040518091039020817f0e3ebb7eb6b18608937bced5d13fe9ac65e1834d44b8731ad1f496029d3e762c60405160405180910390a36001915050919050565b60008060009054906101000a900473ffffffffffffffffffffffffffffffffffffffff16905090565b600080600360003373ffffffffffffffffffffffffffffffffffffffff1673ffffffffffffffffffffffffffffffffffffffff168152602001908152602001600020541161110a576040517f08c379a000000000000000000000000000000000000000000000000000000000815260040161110190611f29565b60405180910390fd5b600060046000600360003373ffffffffffffffffffffffffffffffffffffffff1673ffffffffffffffffffffffffffffffffffffffff1681526020019081526020016000205481526020019081526020016000209050600060016002546111719190612079565b905060006040518060c001604052808b81526020018a81526020018981526020018781526020018881526020018615158152509050806005600084815260200190815260200160002060008201518160000190805190602001906111d692919061157c565b5060208201518160010190805190602001906111f392919061157c565b50604082015181600201908051906020019061121092919061157c565b50606082015181600301908051906020019061122d92919061157c565b50608082015181600401908051906020019061124a92919061157c565b5060a08201518160050160006101000a81548160ff02191690831515021790555090505082600401829080600181540180825580915050600190039060005260206000200160009091909190915055600260008154809291906112ac906121cc565b9190505550886040516112bf9190611c90565b60405180910390208a6040516112d59190611c90565b6040518091039020600360003373ffffffffffffffffffffffffffffffffffffffff1673ffffffffffffffffffffffffffffffffffffffff168152602001908152602001600020547f1855c0dfa6106defb64060adca62eaa54ba564e0c599879cd9a83a1579e6e8ac8b8a8c8b6040516113529493929190611d14565b60405180910390a4600193505050509695505050505050565b6000600360003373ffffffffffffffffffffffffffffffffffffffff1673ffffffffffffffffffffffffffffffffffffffff16815260200190815260200160002054905090565b60025481565b6113c06114b0565b73ffffffffffffffffffffffffffffffffffffffff166113de61105e565b73ffffffffffffffffffffffffffffffffffffffff1614611434576040517f08c379a000000000000000000000000000000000000000000000000000000000815260040161142b90611ee9565b60405180910390fd5b600073ffffffffffffffffffffffffffffffffffffffff168173ffffffffffffffffffffffffffffffffffffffff1614156114a4576040517f08c379a000000000000000000000000000000000000000000000000000000000815260040161149b90611ec9565b60405180910390fd5b6114ad816114b8565b50565b600033905090565b60008060009054906101000a900473ffffffffffffffffffffffffffffffffffffffff169050816000806101000a81548173ffffffffffffffffffffffffffffffffffffffff021916908373ffffffffffffffffffffffffffffffffffffffff1602179055508173ffffffffffffffffffffffffffffffffffffffff168173ffffffffffffffffffffffffffffffffffffffff167f8be0079c531659141344cd1fd0a4f28419497f9722a3daafe3b4186f6b6457e060405160405180910390a35050565b82805461158890612169565b90600052602060002090601f0160209004810192826115aa57600085556115f1565b82601f106115c357805160ff19168380011785556115f1565b828001600101855582156115f1579182015b828111156115f05782518255916020019190600101906115d5565b5b5090506115fe919061164f565b5090565b82805482825590600052602060002090810192821561163e579160200282015b8281111561163d578251825591602001919060010190611622565b5b50905061164b919061164f565b5090565b5b80821115611668576000816000905550600101611650565b5090565b600061167f61167a84611f89565b611f64565b905080838252602082019050828560208602820111156116a2576116a1612303565b5b60005b858110156116d257816116b8888261171e565b8452602084019350602083019250506001810190506116a5565b5050509392505050565b60006116ef6116ea84611fb5565b611f64565b90508281526020810184848401111561170b5761170a612308565b5b611716848285612127565b509392505050565b60008135905061172d816123f2565b92915050565b600082601f830112611748576117476122fe565b5b813561175884826020860161166c565b91505092915050565b60008135905061177081612409565b92915050565b600082601f83011261178b5761178a6122fe565b5b813561179b8482602086016116dc565b91505092915050565b6000813590506117b381612420565b92915050565b6000602082840312156117cf576117ce612312565b5b60006117dd8482850161171e565b91505092915050565b6000602082840312156117fc576117fb612312565b5b600082013567ffffffffffffffff81111561181a5761181961230d565b5b61182684828501611733565b91505092915050565b6000806000806080858703121561184957611848612312565b5b600085013567ffffffffffffffff8111156118675761186661230d565b5b61187387828801611776565b945050602085013567ffffffffffffffff8111156118945761189361230d565b5b6118a087828801611776565b935050604085013567ffffffffffffffff8111156118c1576118c061230d565b5b6118cd87828801611776565b925050606085013567ffffffffffffffff8111156118ee576118ed61230d565b5b6118fa87828801611776565b91505092959194509250565b60008060008060008060c0878903121561192357611922612312565b5b600087013567ffffffffffffffff8111156119415761194061230d565b5b61194d89828a01611776565b965050602087013567ffffffffffffffff81111561196e5761196d61230d565b5b61197a89828a01611776565b955050604087013567ffffffffffffffff81111561199b5761199a61230d565b5b6119a789828a01611776565b945050606087013567ffffffffffffffff8111156119c8576119c761230d565b5b6119d489828a01611776565b935050608087013567ffffffffffffffff8111156119f5576119f461230d565b5b611a0189828a01611776565b92505060a0611a1289828a01611761565b9150509295509295509295565b600060208284031215611a3557611a34612312565b5b6000611a43848285016117a4565b91505092915050565b6000611a588383611a8b565b60208301905092915050565b6000611a708383611c5b565b60208301905092915050565b611a85816120cf565b82525050565b611a94816120cf565b82525050565b6000611aa582612006565b611aaf8185612041565b9350611aba83611fe6565b8060005b83811015611aeb578151611ad28882611a4c565b9750611add83612027565b925050600181019050611abe565b5085935050505092915050565b6000611b0382612011565b611b0d818561204c565b9350611b1883611ff6565b8060005b83811015611b49578151611b308882611a64565b9750611b3b83612034565b925050600181019050611b1c565b5085935050505092915050565b611b5f816120e1565b82525050565b6000611b708261201c565b611b7a818561205d565b9350611b8a818560208601612136565b611b9381612317565b840191505092915050565b6000611ba98261201c565b611bb3818561206e565b9350611bc3818560208601612136565b80840191505092915050565b6000611bdc60268361205d565b9150611be782612328565b604082019050919050565b6000611bff60208361205d565b9150611c0a82612377565b602082019050919050565b6000611c2260188361205d565b9150611c2d826123a0565b602082019050919050565b6000611c4560178361205d565b9150611c50826123c9565b602082019050919050565b611c648161210d565b82525050565b611c738161210d565b82525050565b6000611c858284611a9a565b915081905092915050565b6000611c9c8284611b9e565b915081905092915050565b6000602082019050611cbc6000830184611a7c565b92915050565b6000602082019050611cd76000830184611b56565b92915050565b60006040820190508181036000830152611cf78185611b65565b90508181036020830152611d0b8184611b65565b90509392505050565b60006080820190508181036000830152611d2e8187611b65565b90508181036020830152611d428186611b65565b90508181036040830152611d568185611b65565b9050611d656060830184611b56565b95945050505050565b60006080820190508181036000830152611d888187611b65565b90508181036020830152611d9c8186611b65565b90508181036040830152611db08185611b65565b90508181036060830152611dc48184611b65565b905095945050505050565b600060a0820190508181036000830152611de98188611b65565b90508181036020830152611dfd8187611b65565b90508181036040830152611e118186611b65565b90508181036060830152611e258185611b65565b90508181036080830152611e398184611af8565b90509695505050505050565b600060c0820190508181036000830152611e5f8189611b65565b90508181036020830152611e738188611b65565b90508181036040830152611e878187611b65565b90508181036060830152611e9b8186611b65565b90508181036080830152611eaf8185611b65565b9050611ebe60a0830184611b56565b979650505050505050565b60006020820190508181036000830152611ee281611bcf565b9050919050565b60006020820190508181036000830152611f0281611bf2565b9050919050565b60006020820190508181036000830152611f2281611c15565b9050919050565b60006020820190508181036000830152611f4281611c38565b9050919050565b6000602082019050611f5e6000830184611c6a565b92915050565b6000611f6e611f7f565b9050611f7a828261219b565b919050565b6000604051905090565b600067ffffffffffffffff821115611fa457611fa36122cf565b5b602082029050602081019050919050565b600067ffffffffffffffff821115611fd057611fcf6122cf565b5b611fd982612317565b9050602081019050919050565b6000819050602082019050919050565b6000819050602082019050919050565b600081519050919050565b600081519050919050565b600081519050919050565b6000602082019050919050565b6000602082019050919050565b600081905092915050565b600082825260208201905092915050565b600082825260208201905092915050565b600081905092915050565b60006120848261210d565b915061208f8361210d565b9250827fffffffffffffffffffffffffffffffffffffffffffffffffffffffffffffffff038211156120c4576120c3612242565b5b828201905092915050565b60006120da826120ed565b9050919050565b60008115159050919050565b600073ffffffffffffffffffffffffffffffffffffffff82169050919050565b6000819050919050565b600063ffffffff82169050919050565b82818337600083830152505050565b60005b83811015612154578082015181840152602081019050612139565b83811115612163576000848401525b50505050565b6000600282049050600182168061218157607f821691505b6020821081141561219557612194612271565b5b50919050565b6121a482612317565b810181811067ffffffffffffffff821117156121c3576121c26122cf565b5b80604052505050565b60006121d78261210d565b91507fffffffffffffffffffffffffffffffffffffffffffffffffffffffffffffffff82141561220a57612209612242565b5b600182019050919050565b600061222082612117565b915063ffffffff82141561223757612236612242565b5b600182019050919050565b7f4e487b7100000000000000000000000000000000000000000000000000000000600052601160045260246000fd5b7f4e487b7100000000000000000000000000000000000000000000000000000000600052602260045260246000fd5b7f4e487b7100000000000000000000000000000000000000000000000000000000600052603260045260246000fd5b7f4e487b7100000000000000000000000000000000000000000000000000000000600052604160045260246000fd5b600080fd5b600080fd5b600080fd5b600080fd5b600080fd5b6000601f19601f8301169050919050565b7f4f776e61626c653a206e6577206f776e657220697320746865207a65726f206160008201527f6464726573730000000000000000000000000000000000000000000000000000602082015250565b7f4f776e61626c653a2063616c6c6572206973206e6f7420746865206f776e6572600082015250565b7f596f752061726520616c72656164792061206d656d6265720000000000000000600082015250565b7f596f75206861766520746f2062652061206d656d626572000000000000000000600082015250565b6123fb816120cf565b811461240657600080fd5b50565b612412816120e1565b811461241d57600080fd5b50565b6124298161210d565b811461243457600080fd5b5056fea2646970667358221220f955673ae05f49ca7bf77958f860c54256d13734f72fb3efd74c61853eb0743b64736f6c63430008070033",
  "linkReferences": {},
  "deployedLinkReferences": {}
}