{
  "_format": "hh-sol-artifact-1",
  "contractName": "MetaLinks",
  "sourceName": "contracts/MetaLinks.sol",
  "abi": [
    {
      "inputs": [],
      "stateMutability": "nonpayable",
      "type": "constructor"
    },
    {
      "anonymous": false,
      "inputs": [
        {
          "indexed": true,
          "internalType": "uint256",
          "name": "id",
          "type": "uint256"
        },
        {
          "indexed": true,
          "internalType": "address[]",
          "name": "newAddresses",
          "type": "address[]"
        }
      ],
      "name": "AvatarAddressAdded",
      "type": "event"
    },
    {
      "anonymous": false,
      "inputs": [
        {
          "indexed": true,
          "internalType": "uint256",
          "name": "avatarID",
          "type": "uint256"
        },
        {
          "indexed": true,
          "internalType": "string",
          "name": "name",
          "type": "string"
        },
        {
          "indexed": true,
          "internalType": "string",
          "name": "aka",
          "type": "string"
        },
        {
          "indexed": false,
          "internalType": "string",
          "name": "bio",
          "type": "string"
        },
        {
          "indexed": false,
          "internalType": "string",
          "name": "avatar",
          "type": "string"
        },
        {
          "indexed": false,
          "internalType": "string",
          "name": "bgAvatar",
          "type": "string"
        }
      ],
      "name": "AvatarCreated",
      "type": "event"
    },
    {
      "anonymous": false,
      "inputs": [
        {
          "indexed": true,
          "internalType": "uint256",
          "name": "avatarID",
          "type": "uint256"
        },
        {
          "indexed": true,
          "internalType": "uint256",
          "name": "newMetaLinkID",
          "type": "uint256"
        },
        {
          "indexed": true,
          "internalType": "string",
          "name": "name",
          "type": "string"
        },
        {
          "indexed": false,
          "internalType": "string",
          "name": "aka",
          "type": "string"
        },
        {
          "indexed": false,
          "internalType": "string",
          "name": "bio",
          "type": "string"
        },
        {
          "indexed": false,
          "internalType": "string",
          "name": "universe",
          "type": "string"
        },
        {
          "indexed": false,
          "internalType": "string",
          "name": "link",
          "type": "string"
        },
        {
          "indexed": false,
          "internalType": "string",
          "name": "avatar",
          "type": "string"
        },
        {
          "indexed": false,
          "internalType": "string",
          "name": "bgAvatar",
          "type": "string"
        },
        {
          "indexed": false,
          "internalType": "bool",
          "name": "active",
          "type": "bool"
        }
      ],
      "name": "MetaLinkAdded",
      "type": "event"
    },
    {
      "anonymous": false,
      "inputs": [
        {
          "indexed": true,
          "internalType": "address",
          "name": "previousOwner",
          "type": "address"
        },
        {
          "indexed": true,
          "internalType": "address",
          "name": "newOwner",
          "type": "address"
        }
      ],
      "name": "OwnershipTransferred",
      "type": "event"
    },
    {
      "inputs": [
        {
          "internalType": "address[]",
          "name": "_addresses",
          "type": "address[]"
        }
      ],
      "name": "addAvatarAddress",
      "outputs": [
        {
          "internalType": "bool",
          "name": "",
          "type": "bool"
        }
      ],
      "stateMutability": "nonpayable",
      "type": "function"
    },
    {
      "inputs": [
        {
          "internalType": "string",
          "name": "_name",
          "type": "string"
        },
        {
          "internalType": "string",
          "name": "_aka",
          "type": "string"
        },
        {
          "internalType": "string",
          "name": "_bio",
          "type": "string"
        },
        {
          "internalType": "string",
          "name": "_universe",
          "type": "string"
        },
        {
          "internalType": "string",
          "name": "_avatar",
          "type": "string"
        },
        {
          "internalType": "string",
          "name": "_bg_avatar",
          "type": "string"
        },
        {
          "internalType": "string",
          "name": "_link",
          "type": "string"
        },
        {
          "internalType": "bool",
          "name": "_active",
          "type": "bool"
        }
      ],
      "name": "addMetaLinkMetalink",
      "outputs": [
        {
          "internalType": "bool",
          "name": "",
          "type": "bool"
        }
      ],
      "stateMutability": "nonpayable",
      "type": "function"
    },
    {
      "inputs": [
        {
          "internalType": "address",
          "name": "",
          "type": "address"
        }
      ],
      "name": "addressesToMID",
      "outputs": [
        {
          "internalType": "uint256",
          "name": "",
          "type": "uint256"
        }
      ],
      "stateMutability": "view",
      "type": "function"
    },
    {
      "inputs": [
        {
          "internalType": "string",
          "name": "_name",
          "type": "string"
        },
        {
          "internalType": "string",
          "name": "_aka",
          "type": "string"
        },
        {
          "internalType": "string",
          "name": "_bio",
          "type": "string"
        },
        {
          "internalType": "string",
          "name": "_avatar",
          "type": "string"
        },
        {
          "internalType": "string",
          "name": "_bg_avatar",
          "type": "string"
        }
      ],
      "name": "createAvatar",
      "outputs": [
        {
          "internalType": "uint256",
          "name": "",
          "type": "uint256"
        }
      ],
      "stateMutability": "nonpayable",
      "type": "function"
    },
    {
      "inputs": [
        {
          "internalType": "address",
          "name": "_address",
          "type": "address"
        }
      ],
      "name": "getAvatarByAddress",
      "outputs": [
        {
          "internalType": "string",
          "name": "",
          "type": "string"
        },
        {
          "internalType": "string",
          "name": "",
          "type": "string"
        },
        {
          "internalType": "string",
          "name": "",
          "type": "string"
        },
        {
          "internalType": "string",
          "name": "",
          "type": "string"
        },
        {
          "internalType": "string",
          "name": "",
          "type": "string"
        },
        {
          "internalType": "uint256[]",
          "name": "links",
          "type": "uint256[]"
        }
      ],
      "stateMutability": "view",
      "type": "function"
    },
    {
      "inputs": [
        {
          "internalType": "uint256",
          "name": "_id",
          "type": "uint256"
        }
      ],
      "name": "getAvatarById",
      "outputs": [
        {
          "internalType": "string",
          "name": "",
          "type": "string"
        },
        {
          "internalType": "string",
          "name": "",
          "type": "string"
        },
        {
          "internalType": "string",
          "name": "",
          "type": "string"
        },
        {
          "internalType": "string",
          "name": "",
          "type": "string"
        },
        {
          "internalType": "string",
          "name": "",
          "type": "string"
        },
        {
          "internalType": "uint256[]",
          "name": "links",
          "type": "uint256[]"
        }
      ],
      "stateMutability": "view",
      "type": "function"
    },
    {
      "inputs": [
        {
          "internalType": "address",
          "name": "_address",
          "type": "address"
        }
      ],
      "name": "getAvatarID",
      "outputs": [
        {
          "internalType": "uint256",
          "name": "",
          "type": "uint256"
        }
      ],
      "stateMutability": "view",
      "type": "function"
    },
    {
      "inputs": [
        {
          "internalType": "uint256",
          "name": "_id",
          "type": "uint256"
        }
      ],
      "name": "getAvatarMetaLinkIDs",
      "outputs": [
        {
          "internalType": "uint256[]",
          "name": "links",
          "type": "uint256[]"
        }
      ],
      "stateMutability": "view",
      "type": "function"
    },
    {
      "inputs": [
        {
          "internalType": "uint256",
          "name": "_id",
          "type": "uint256"
        }
      ],
      "name": "getMetaLink",
      "outputs": [
        {
          "internalType": "string",
          "name": "",
          "type": "string"
        },
        {
          "internalType": "string",
          "name": "",
          "type": "string"
        },
        {
          "internalType": "string",
          "name": "",
          "type": "string"
        },
        {
          "internalType": "string",
          "name": "",
          "type": "string"
        },
        {
          "internalType": "string",
          "name": "",
          "type": "string"
        },
        {
          "internalType": "string",
          "name": "",
          "type": "string"
        }
      ],
      "stateMutability": "view",
      "type": "function"
    },
    {
      "inputs": [],
      "name": "getMyAvatarID",
      "outputs": [
        {
          "internalType": "uint256",
          "name": "",
          "type": "uint256"
        }
      ],
      "stateMutability": "view",
      "type": "function"
    },
    {
      "inputs": [
        {
          "internalType": "uint256",
          "name": "",
          "type": "uint256"
        }
      ],
      "name": "midsToAvatars",
      "outputs": [
        {
          "internalType": "string",
          "name": "name",
          "type": "string"
        },
        {
          "internalType": "string",
          "name": "aka",
          "type": "string"
        },
        {
          "internalType": "string",
          "name": "bio",
          "type": "string"
        },
        {
          "internalType": "string",
          "name": "avatar",
          "type": "string"
        },
        {
          "internalType": "string",
          "name": "bg_avatar",
          "type": "string"
        }
      ],
      "stateMutability": "view",
      "type": "function"
    },
    {
      "inputs": [
        {
          "internalType": "uint256",
          "name": "",
          "type": "uint256"
        }
      ],
      "name": "midsToMetaLinks",
      "outputs": [
        {
          "internalType": "string",
          "name": "name",
          "type": "string"
        },
        {
          "internalType": "string",
          "name": "aka",
          "type": "string"
        },
        {
          "internalType": "string",
          "name": "universe",
          "type": "string"
        },
        {
          "internalType": "string",
          "name": "link",
          "type": "string"
        },
        {
          "internalType": "string",
          "name": "bio",
          "type": "string"
        },
        {
          "internalType": "string",
          "name": "avatar",
          "type": "string"
        },
        {
          "internalType": "string",
          "name": "bg_avatar",
          "type": "string"
        },
        {
          "internalType": "bool",
          "name": "active",
          "type": "bool"
        }
      ],
      "stateMutability": "view",
      "type": "function"
    },
    {
      "inputs": [],
      "name": "owner",
      "outputs": [
        {
          "internalType": "address",
          "name": "",
          "type": "address"
        }
      ],
      "stateMutability": "view",
      "type": "function"
    },
    {
      "inputs": [],
      "name": "renounceOwnership",
      "outputs": [],
      "stateMutability": "nonpayable",
      "type": "function"
    },
    {
      "inputs": [],
      "name": "totalAddresses",
      "outputs": [
        {
          "internalType": "uint256",
          "name": "",
          "type": "uint256"
        }
      ],
      "stateMutability": "view",
      "type": "function"
    },
    {
      "inputs": [],
      "name": "totalAvatars",
      "outputs": [
        {
          "internalType": "uint256",
          "name": "",
          "type": "uint256"
        }
      ],
      "stateMutability": "view",
      "type": "function"
    },
    {
      "inputs": [],
      "name": "totalMetaLinks",
      "outputs": [
        {
          "internalType": "uint256",
          "name": "",
          "type": "uint256"
        }
      ],
      "stateMutability": "view",
      "type": "function"
    },
    {
      "inputs": [
        {
          "internalType": "address",
          "name": "newOwner",
          "type": "address"
        }
      ],
      "name": "transferOwnership",
      "outputs": [],
      "stateMutability": "nonpayable",
      "type": "function"
    }
  ],
  "bytecode": "0x60806040523480156200001157600080fd5b5062000032620000266200003860201b60201c565b6200004060201b60201c565b62000104565b600033905090565b60008060009054906101000a900473ffffffffffffffffffffffffffffffffffffffff169050816000806101000a81548173ffffffffffffffffffffffffffffffffffffffff021916908373ffffffffffffffffffffffffffffffffffffffff1602179055508173ffffffffffffffffffffffffffffffffffffffff168173ffffffffffffffffffffffffffffffffffffffff167f8be0079c531659141344cd1fd0a4f28419497f9722a3daafe3b4186f6b6457e060405160405180910390a35050565b61384480620001146000396000f3fe608060405234801561001057600080fd5b50600436106101165760003560e01c8063787ee815116100a2578063b48375e411610071578063b48375e41461035b578063baea526f14610379578063cfad527714610397578063f2fde38b146103b5578063fc94b465146103d157610116565b8063787ee815146102a95780637a2b8712146102d957806386e7e4921461030d5780638da5cb5b1461033d57610116565b80634347fec8116100e95780634347fec8146101e557806352cfbb431461021a5780635a4f0b2f146102515780636ac156db14610281578063715018a61461029f57610116565b8063013808aa1461011b578063106f4ad81461014b578063215cc03114610180578063231cfdb7146101b5575b600080fd5b610135600480360381019061013091906128db565b610401565b60405161014291906132a5565b60405180910390f35b61016560048036038101906101609190612b5c565b6106a7565b60405161017796959493929190612ff2565b60405180910390f35b61019a60048036038101906101959190612865565b610b71565b6040516101ac96959493929190612f67565b60405180910390f35b6101cf60048036038101906101ca91906129e2565b610f98565b6040516101dc9190612e8a565b60405180910390f35b6101ff60048036038101906101fa9190612b5c565b6112c2565b60405161021196959493929190612f67565b60405180910390f35b610234600480360381019061022f9190612b5c565b6116a4565b604051610248989796959493929190613116565b60405180910390f35b61026b60048036038101906102669190612865565b611ab1565b60405161027891906132a5565b60405180910390f35b610289611afa565b60405161029691906132a5565b60405180910390f35b6102a7611b00565b005b6102c360048036038101906102be9190612865565b611b88565b6040516102d091906132a5565b60405180910390f35b6102f360048036038101906102ee9190612b5c565b611ba0565b604051610304959493929190612ef1565b60405180910390f35b61032760048036038101906103229190612892565b611e7e565b6040516103349190612e8a565b60405180910390f35b610345612085565b6040516103529190612e4d565b60405180910390f35b6103636120ae565b60405161037091906132a5565b60405180910390f35b6103816120f5565b60405161038e91906132a5565b60405180910390f35b61039f6120fb565b6040516103ac91906132a5565b60405180910390f35b6103cf60048036038101906103ca9190612865565b612101565b005b6103eb60048036038101906103e69190612b5c565b6121f9565b6040516103f89190612e68565b60405180910390f35b600080600460003373ffffffffffffffffffffffffffffffffffffffff1673ffffffffffffffffffffffffffffffffffffffff1681526020019081526020016000205414610484576040517f08c379a000000000000000000000000000000000000000000000000000000000815260040161047b90613245565b60405180910390fd5b60006001805461049491906133d5565b905080600460003373ffffffffffffffffffffffffffffffffffffffff1673ffffffffffffffffffffffffffffffffffffffff1681526020019081526020016000208190555060006040518060c00160405280898152602001888152602001878152602001868152602001858152602001600067ffffffffffffffff8111156105205761051f61362b565b5b60405190808252806020026020018201604052801561054e5781602001602082028036833780820191505090505b50815250905080600560008481526020019081526020016000206000820151816000019080519060200190610584929190612628565b5060208201518160010190805190602001906105a1929190612628565b5060408201518160020190805190602001906105be929190612628565b5060608201518160030190805190602001906105db929190612628565b5060808201518160040190805190602001906105f8929190612628565b5060a08201518160050190805190602001906106159291906126ae565b509050506001600081548092919061062c90613528565b91905055508660405161063f9190612e36565b6040518091039020886040516106559190612e36565b6040518091039020837f33c79442820bff70e679fb367a83f1207627b18198401ecaf8700a48ca9b9c6289898960405161069193929190612ea5565b60405180910390a4819250505095945050505050565b6060806060806060806000871180156106c257506002548711155b610701576040517f08c379a00000000000000000000000000000000000000000000000000000000081526004016106f890613205565b60405180910390fd5b60006006600089815260200190815260200160002060405180610100016040529081600082018054610732906134c5565b80601f016020809104026020016040519081016040528092919081815260200182805461075e906134c5565b80156107ab5780601f10610780576101008083540402835291602001916107ab565b820191906000526020600020905b81548152906001019060200180831161078e57829003601f168201915b505050505081526020016001820180546107c4906134c5565b80601f01602080910402602001604051908101604052809291908181526020018280546107f0906134c5565b801561083d5780601f106108125761010080835404028352916020019161083d565b820191906000526020600020905b81548152906001019060200180831161082057829003601f168201915b50505050508152602001600282018054610856906134c5565b80601f0160208091040260200160405190810160405280929190818152602001828054610882906134c5565b80156108cf5780601f106108a4576101008083540402835291602001916108cf565b820191906000526020600020905b8154815290600101906020018083116108b257829003601f168201915b505050505081526020016003820180546108e8906134c5565b80601f0160208091040260200160405190810160405280929190818152602001828054610914906134c5565b80156109615780601f1061093657610100808354040283529160200191610961565b820191906000526020600020905b81548152906001019060200180831161094457829003601f168201915b5050505050815260200160048201805461097a906134c5565b80601f01602080910402602001604051908101604052809291908181526020018280546109a6906134c5565b80156109f35780601f106109c8576101008083540402835291602001916109f3565b820191906000526020600020905b8154815290600101906020018083116109d657829003601f168201915b50505050508152602001600582018054610a0c906134c5565b80601f0160208091040260200160405190810160405280929190818152602001828054610a38906134c5565b8015610a855780601f10610a5a57610100808354040283529160200191610a85565b820191906000526020600020905b815481529060010190602001808311610a6857829003601f168201915b50505050508152602001600682018054610a9e906134c5565b80601f0160208091040260200160405190810160405280929190818152602001828054610aca906134c5565b8015610b175780601f10610aec57610100808354040283529160200191610b17565b820191906000526020600020905b815481529060010190602001808311610afa57829003601f168201915b505050505081526020016007820160009054906101000a900460ff16151515158152505090508060000151816020015182608001518360a001518460c0015185606001519650965096509650965096505091939550919395565b6060806060806060806000600460008973ffffffffffffffffffffffffffffffffffffffff1673ffffffffffffffffffffffffffffffffffffffff168152602001908152602001600020549050600081118015610bd057506001548111155b610c0f576040517f08c379a0000000000000000000000000000000000000000000000000000000008152600401610c0690613265565b60405180910390fd5b6000600560008381526020019081526020016000206040518060c0016040529081600082018054610c3f906134c5565b80601f0160208091040260200160405190810160405280929190818152602001828054610c6b906134c5565b8015610cb85780601f10610c8d57610100808354040283529160200191610cb8565b820191906000526020600020905b815481529060010190602001808311610c9b57829003601f168201915b50505050508152602001600182018054610cd1906134c5565b80601f0160208091040260200160405190810160405280929190818152602001828054610cfd906134c5565b8015610d4a5780601f10610d1f57610100808354040283529160200191610d4a565b820191906000526020600020905b815481529060010190602001808311610d2d57829003601f168201915b50505050508152602001600282018054610d63906134c5565b80601f0160208091040260200160405190810160405280929190818152602001828054610d8f906134c5565b8015610ddc5780601f10610db157610100808354040283529160200191610ddc565b820191906000526020600020905b815481529060010190602001808311610dbf57829003601f168201915b50505050508152602001600382018054610df5906134c5565b80601f0160208091040260200160405190810160405280929190818152602001828054610e21906134c5565b8015610e6e5780601f10610e4357610100808354040283529160200191610e6e565b820191906000526020600020905b815481529060010190602001808311610e5157829003601f168201915b50505050508152602001600482018054610e87906134c5565b80601f0160208091040260200160405190810160405280929190818152602001828054610eb3906134c5565b8015610f005780601f10610ed557610100808354040283529160200191610f00565b820191906000526020600020905b815481529060010190602001808311610ee357829003601f168201915b5050505050815260200160058201805480602002602001604051908101604052809291908181526020018280548015610f5857602002820191906000526020600020905b815481526020019060010190808311610f44575b5050505050815250509050806000015181602001518260400151836060015184608001518560a00151975097509750975097509750505091939550919395565b600080600460003373ffffffffffffffffffffffffffffffffffffffff1673ffffffffffffffffffffffffffffffffffffffff168152602001908152602001600020541161101b576040517f08c379a000000000000000000000000000000000000000000000000000000000815260040161101290613285565b60405180910390fd5b600060056000600460003373ffffffffffffffffffffffffffffffffffffffff1673ffffffffffffffffffffffffffffffffffffffff16815260200190815260200160002054815260200190815260200160002090506000600160025461108291906133d5565b905060006040518061010001604052808d81526020018c81526020018a81526020018781526020018b81526020018981526020018881526020018615158152509050806006600084815260200190815260200160002060008201518160000190805190602001906110f4929190612628565b506020820151816001019080519060200190611111929190612628565b50604082015181600201908051906020019061112e929190612628565b50606082015181600301908051906020019061114b929190612628565b506080820151816004019080519060200190611168929190612628565b5060a0820151816005019080519060200190611185929190612628565b5060c08201518160060190805190602001906111a2929190612628565b5060e08201518160070160006101000a81548160ff021916908315150217905550905050826005018290806001815401808255809150506001900390600052602060002001600090919091909150556002600081548092919061120490613528565b91905055508b6040516112179190612e36565b6040518091039020600460003373ffffffffffffffffffffffffffffffffffffffff1673ffffffffffffffffffffffffffffffffffffffff16815260200190815260200160002054837f01a01fbca88702fbfa390f3ae96229cf64dbfab947835c5446581c0da3c5bd5c8e8e8e8c8860a001518960c001518a60e001516040516112a7979695949392919061307d565b60405180910390a46001935050505098975050505050505050565b6060806060806060806000871180156112dd57506001548711155b61131c576040517f08c379a000000000000000000000000000000000000000000000000000000000815260040161131390613265565b60405180910390fd5b6000600560008981526020019081526020016000206040518060c001604052908160008201805461134c906134c5565b80601f0160208091040260200160405190810160405280929190818152602001828054611378906134c5565b80156113c55780601f1061139a576101008083540402835291602001916113c5565b820191906000526020600020905b8154815290600101906020018083116113a857829003601f168201915b505050505081526020016001820180546113de906134c5565b80601f016020809104026020016040519081016040528092919081815260200182805461140a906134c5565b80156114575780601f1061142c57610100808354040283529160200191611457565b820191906000526020600020905b81548152906001019060200180831161143a57829003601f168201915b50505050508152602001600282018054611470906134c5565b80601f016020809104026020016040519081016040528092919081815260200182805461149c906134c5565b80156114e95780601f106114be576101008083540402835291602001916114e9565b820191906000526020600020905b8154815290600101906020018083116114cc57829003601f168201915b50505050508152602001600382018054611502906134c5565b80601f016020809104026020016040519081016040528092919081815260200182805461152e906134c5565b801561157b5780601f106115505761010080835404028352916020019161157b565b820191906000526020600020905b81548152906001019060200180831161155e57829003601f168201915b50505050508152602001600482018054611594906134c5565b80601f01602080910402602001604051908101604052809291908181526020018280546115c0906134c5565b801561160d5780601f106115e25761010080835404028352916020019161160d565b820191906000526020600020905b8154815290600101906020018083116115f057829003601f168201915b505050505081526020016005820180548060200260200160405190810160405280929190818152602001828054801561166557602002820191906000526020600020905b815481526020019060010190808311611651575b5050505050815250509050806000015181602001518260400151836060015184608001518560a001519650965096509650965096505091939550919395565b60066020528060005260406000206000915090508060000180546116c7906134c5565b80601f01602080910402602001604051908101604052809291908181526020018280546116f3906134c5565b80156117405780601f1061171557610100808354040283529160200191611740565b820191906000526020600020905b81548152906001019060200180831161172357829003601f168201915b505050505090806001018054611755906134c5565b80601f0160208091040260200160405190810160405280929190818152602001828054611781906134c5565b80156117ce5780601f106117a3576101008083540402835291602001916117ce565b820191906000526020600020905b8154815290600101906020018083116117b157829003601f168201915b5050505050908060020180546117e3906134c5565b80601f016020809104026020016040519081016040528092919081815260200182805461180f906134c5565b801561185c5780601f106118315761010080835404028352916020019161185c565b820191906000526020600020905b81548152906001019060200180831161183f57829003601f168201915b505050505090806003018054611871906134c5565b80601f016020809104026020016040519081016040528092919081815260200182805461189d906134c5565b80156118ea5780601f106118bf576101008083540402835291602001916118ea565b820191906000526020600020905b8154815290600101906020018083116118cd57829003601f168201915b5050505050908060040180546118ff906134c5565b80601f016020809104026020016040519081016040528092919081815260200182805461192b906134c5565b80156119785780601f1061194d57610100808354040283529160200191611978565b820191906000526020600020905b81548152906001019060200180831161195b57829003601f168201915b50505050509080600501805461198d906134c5565b80601f01602080910402602001604051908101604052809291908181526020018280546119b9906134c5565b8015611a065780601f106119db57610100808354040283529160200191611a06565b820191906000526020600020905b8154815290600101906020018083116119e957829003601f168201915b505050505090806006018054611a1b906134c5565b80601f0160208091040260200160405190810160405280929190818152602001828054611a47906134c5565b8015611a945780601f10611a6957610100808354040283529160200191611a94565b820191906000526020600020905b815481529060010190602001808311611a7757829003601f168201915b5050505050908060070160009054906101000a900460ff16905088565b6000600460008373ffffffffffffffffffffffffffffffffffffffff1673ffffffffffffffffffffffffffffffffffffffff168152602001908152602001600020549050919050565b60015481565b611b0861255c565b73ffffffffffffffffffffffffffffffffffffffff16611b26612085565b73ffffffffffffffffffffffffffffffffffffffff1614611b7c576040517f08c379a0000000000000000000000000000000000000000000000000000000008152600401611b7390613225565b60405180910390fd5b611b866000612564565b565b60046020528060005260406000206000915090505481565b6005602052806000526040600020600091509050806000018054611bc3906134c5565b80601f0160208091040260200160405190810160405280929190818152602001828054611bef906134c5565b8015611c3c5780601f10611c1157610100808354040283529160200191611c3c565b820191906000526020600020905b815481529060010190602001808311611c1f57829003601f168201915b505050505090806001018054611c51906134c5565b80601f0160208091040260200160405190810160405280929190818152602001828054611c7d906134c5565b8015611cca5780601f10611c9f57610100808354040283529160200191611cca565b820191906000526020600020905b815481529060010190602001808311611cad57829003601f168201915b505050505090806002018054611cdf906134c5565b80601f0160208091040260200160405190810160405280929190818152602001828054611d0b906134c5565b8015611d585780601f10611d2d57610100808354040283529160200191611d58565b820191906000526020600020905b815481529060010190602001808311611d3b57829003601f168201915b505050505090806003018054611d6d906134c5565b80601f0160208091040260200160405190810160405280929190818152602001828054611d99906134c5565b8015611de65780601f10611dbb57610100808354040283529160200191611de6565b820191906000526020600020905b815481529060010190602001808311611dc957829003601f168201915b505050505090806004018054611dfb906134c5565b80601f0160208091040260200160405190810160405280929190818152602001828054611e27906134c5565b8015611e745780601f10611e4957610100808354040283529160200191611e74565b820191906000526020600020905b815481529060010190602001808311611e5757829003601f168201915b5050505050905085565b600080600460003373ffffffffffffffffffffffffffffffffffffffff1673ffffffffffffffffffffffffffffffffffffffff1681526020019081526020016000205411611f01576040517f08c379a0000000000000000000000000000000000000000000000000000000008152600401611ef890613285565b60405180910390fd5b6000600460003373ffffffffffffffffffffffffffffffffffffffff1673ffffffffffffffffffffffffffffffffffffffff168152602001908152602001600020549050600081118015611f5757506001548111155b611f96576040517f08c379a0000000000000000000000000000000000000000000000000000000008152600401611f8d906131e5565b60405180910390fd5b60005b83518163ffffffff161015612037578160046000868463ffffffff1681518110611fc657611fc56135fc565b5b602002602001015173ffffffffffffffffffffffffffffffffffffffff1673ffffffffffffffffffffffffffffffffffffffff168152602001908152602001600020819055506003600081548092919061201f90613528565b9190505550808061202f90613571565b915050611f99565b50826040516120469190612e1f565b6040518091039020817f0e3ebb7eb6b18608937bced5d13fe9ac65e1834d44b8731ad1f496029d3e762c60405160405180910390a36001915050919050565b60008060009054906101000a900473ffffffffffffffffffffffffffffffffffffffff16905090565b6000600460003373ffffffffffffffffffffffffffffffffffffffff1673ffffffffffffffffffffffffffffffffffffffff16815260200190815260200160002054905090565b60025481565b60035481565b61210961255c565b73ffffffffffffffffffffffffffffffffffffffff16612127612085565b73ffffffffffffffffffffffffffffffffffffffff161461217d576040517f08c379a000000000000000000000000000000000000000000000000000000000815260040161217490613225565b60405180910390fd5b600073ffffffffffffffffffffffffffffffffffffffff168173ffffffffffffffffffffffffffffffffffffffff1614156121ed576040517f08c379a00000000000000000000000000000000000000000000000000000000081526004016121e4906131c5565b60405180910390fd5b6121f681612564565b50565b60606000600560008481526020019081526020016000206040518060c001604052908160008201805461222b906134c5565b80601f0160208091040260200160405190810160405280929190818152602001828054612257906134c5565b80156122a45780601f10612279576101008083540402835291602001916122a4565b820191906000526020600020905b81548152906001019060200180831161228757829003601f168201915b505050505081526020016001820180546122bd906134c5565b80601f01602080910402602001604051908101604052809291908181526020018280546122e9906134c5565b80156123365780601f1061230b57610100808354040283529160200191612336565b820191906000526020600020905b81548152906001019060200180831161231957829003601f168201915b5050505050815260200160028201805461234f906134c5565b80601f016020809104026020016040519081016040528092919081815260200182805461237b906134c5565b80156123c85780601f1061239d576101008083540402835291602001916123c8565b820191906000526020600020905b8154815290600101906020018083116123ab57829003601f168201915b505050505081526020016003820180546123e1906134c5565b80601f016020809104026020016040519081016040528092919081815260200182805461240d906134c5565b801561245a5780601f1061242f5761010080835404028352916020019161245a565b820191906000526020600020905b81548152906001019060200180831161243d57829003601f168201915b50505050508152602001600482018054612473906134c5565b80601f016020809104026020016040519081016040528092919081815260200182805461249f906134c5565b80156124ec5780601f106124c1576101008083540402835291602001916124ec565b820191906000526020600020905b8154815290600101906020018083116124cf57829003601f168201915b505050505081526020016005820180548060200260200160405190810160405280929190818152602001828054801561254457602002820191906000526020600020905b815481526020019060010190808311612530575b50505050508152505090508060a00151915050919050565b600033905090565b60008060009054906101000a900473ffffffffffffffffffffffffffffffffffffffff169050816000806101000a81548173ffffffffffffffffffffffffffffffffffffffff021916908373ffffffffffffffffffffffffffffffffffffffff1602179055508173ffffffffffffffffffffffffffffffffffffffff168173ffffffffffffffffffffffffffffffffffffffff167f8be0079c531659141344cd1fd0a4f28419497f9722a3daafe3b4186f6b6457e060405160405180910390a35050565b828054612634906134c5565b90600052602060002090601f016020900481019282612656576000855561269d565b82601f1061266f57805160ff191683800117855561269d565b8280016001018555821561269d579182015b8281111561269c578251825591602001919060010190612681565b5b5090506126aa91906126fb565b5090565b8280548282559060005260206000209081019282156126ea579160200282015b828111156126e95782518255916020019190600101906126ce565b5b5090506126f791906126fb565b5090565b5b808211156127145760008160009055506001016126fc565b5090565b600061272b612726846132e5565b6132c0565b9050808382526020820190508285602086028201111561274e5761274d61365f565b5b60005b8581101561277e578161276488826127ca565b845260208401935060208301925050600181019050612751565b5050509392505050565b600061279b61279684613311565b6132c0565b9050828152602081018484840111156127b7576127b6613664565b5b6127c2848285613483565b509392505050565b6000813590506127d9816137c9565b92915050565b600082601f8301126127f4576127f361365a565b5b8135612804848260208601612718565b91505092915050565b60008135905061281c816137e0565b92915050565b600082601f8301126128375761283661365a565b5b8135612847848260208601612788565b91505092915050565b60008135905061285f816137f7565b92915050565b60006020828403121561287b5761287a61366e565b5b6000612889848285016127ca565b91505092915050565b6000602082840312156128a8576128a761366e565b5b600082013567ffffffffffffffff8111156128c6576128c5613669565b5b6128d2848285016127df565b91505092915050565b600080600080600060a086880312156128f7576128f661366e565b5b600086013567ffffffffffffffff81111561291557612914613669565b5b61292188828901612822565b955050602086013567ffffffffffffffff81111561294257612941613669565b5b61294e88828901612822565b945050604086013567ffffffffffffffff81111561296f5761296e613669565b5b61297b88828901612822565b935050606086013567ffffffffffffffff81111561299c5761299b613669565b5b6129a888828901612822565b925050608086013567ffffffffffffffff8111156129c9576129c8613669565b5b6129d588828901612822565b9150509295509295909350565b600080600080600080600080610100898b031215612a0357612a0261366e565b5b600089013567ffffffffffffffff811115612a2157612a20613669565b5b612a2d8b828c01612822565b985050602089013567ffffffffffffffff811115612a4e57612a4d613669565b5b612a5a8b828c01612822565b975050604089013567ffffffffffffffff811115612a7b57612a7a613669565b5b612a878b828c01612822565b965050606089013567ffffffffffffffff811115612aa857612aa7613669565b5b612ab48b828c01612822565b955050608089013567ffffffffffffffff811115612ad557612ad4613669565b5b612ae18b828c01612822565b94505060a089013567ffffffffffffffff811115612b0257612b01613669565b5b612b0e8b828c01612822565b93505060c089013567ffffffffffffffff811115612b2f57612b2e613669565b5b612b3b8b828c01612822565b92505060e0612b4c8b828c0161280d565b9150509295985092959890939650565b600060208284031215612b7257612b7161366e565b5b6000612b8084828501612850565b91505092915050565b6000612b958383612bc8565b60208301905092915050565b6000612bad8383612e01565b60208301905092915050565b612bc28161342b565b82525050565b612bd18161342b565b82525050565b6000612be282613362565b612bec818561339d565b9350612bf783613342565b8060005b83811015612c28578151612c0f8882612b89565b9750612c1a83613383565b925050600181019050612bfb565b5085935050505092915050565b6000612c408261336d565b612c4a81856133a8565b9350612c5583613352565b8060005b83811015612c86578151612c6d8882612ba1565b9750612c7883613390565b925050600181019050612c59565b5085935050505092915050565b612c9c8161343d565b82525050565b6000612cad82613378565b612cb781856133b9565b9350612cc7818560208601613492565b612cd081613673565b840191505092915050565b6000612ce682613378565b612cf081856133ca565b9350612d00818560208601613492565b80840191505092915050565b6000612d196026836133b9565b9150612d2482613684565b604082019050919050565b6000612d3c6015836133b9565b9150612d47826136d3565b602082019050919050565b6000612d5f6017836133b9565b9150612d6a826136fc565b602082019050919050565b6000612d826020836133b9565b9150612d8d82613725565b602082019050919050565b6000612da56018836133b9565b9150612db08261374e565b602082019050919050565b6000612dc86015836133b9565b9150612dd382613777565b602082019050919050565b6000612deb6017836133b9565b9150612df6826137a0565b602082019050919050565b612e0a81613469565b82525050565b612e1981613469565b82525050565b6000612e2b8284612bd7565b915081905092915050565b6000612e428284612cdb565b915081905092915050565b6000602082019050612e626000830184612bb9565b92915050565b60006020820190508181036000830152612e828184612c35565b905092915050565b6000602082019050612e9f6000830184612c93565b92915050565b60006060820190508181036000830152612ebf8186612ca2565b90508181036020830152612ed38185612ca2565b90508181036040830152612ee78184612ca2565b9050949350505050565b600060a0820190508181036000830152612f0b8188612ca2565b90508181036020830152612f1f8187612ca2565b90508181036040830152612f338186612ca2565b90508181036060830152612f478185612ca2565b90508181036080830152612f5b8184612ca2565b90509695505050505050565b600060c0820190508181036000830152612f818189612ca2565b90508181036020830152612f958188612ca2565b90508181036040830152612fa98187612ca2565b90508181036060830152612fbd8186612ca2565b90508181036080830152612fd18185612ca2565b905081810360a0830152612fe58184612c35565b9050979650505050505050565b600060c082019050818103600083015261300c8189612ca2565b905081810360208301526130208188612ca2565b905081810360408301526130348187612ca2565b905081810360608301526130488186612ca2565b9050818103608083015261305c8185612ca2565b905081810360a08301526130708184612ca2565b9050979650505050505050565b600060e0820190508181036000830152613097818a612ca2565b905081810360208301526130ab8189612ca2565b905081810360408301526130bf8188612ca2565b905081810360608301526130d38187612ca2565b905081810360808301526130e78186612ca2565b905081810360a08301526130fb8185612ca2565b905061310a60c0830184612c93565b98975050505050505050565b6000610100820190508181036000830152613131818b612ca2565b90508181036020830152613145818a612ca2565b905081810360408301526131598189612ca2565b9050818103606083015261316d8188612ca2565b905081810360808301526131818187612ca2565b905081810360a08301526131958186612ca2565b905081810360c08301526131a98185612ca2565b90506131b860e0830184612c93565b9998505050505050505050565b600060208201905081810360008301526131de81612d0c565b9050919050565b600060208201905081810360008301526131fe81612d2f565b9050919050565b6000602082019050818103600083015261321e81612d52565b9050919050565b6000602082019050818103600083015261323e81612d75565b9050919050565b6000602082019050818103600083015261325e81612d98565b9050919050565b6000602082019050818103600083015261327e81612dbb565b9050919050565b6000602082019050818103600083015261329e81612dde565b9050919050565b60006020820190506132ba6000830184612e10565b92915050565b60006132ca6132db565b90506132d682826134f7565b919050565b6000604051905090565b600067ffffffffffffffff821115613300576132ff61362b565b5b602082029050602081019050919050565b600067ffffffffffffffff82111561332c5761332b61362b565b5b61333582613673565b9050602081019050919050565b6000819050602082019050919050565b6000819050602082019050919050565b600081519050919050565b600081519050919050565b600081519050919050565b6000602082019050919050565b6000602082019050919050565b600081905092915050565b600082825260208201905092915050565b600082825260208201905092915050565b600081905092915050565b60006133e082613469565b91506133eb83613469565b9250827fffffffffffffffffffffffffffffffffffffffffffffffffffffffffffffffff038211156134205761341f61359e565b5b828201905092915050565b600061343682613449565b9050919050565b60008115159050919050565b600073ffffffffffffffffffffffffffffffffffffffff82169050919050565b6000819050919050565b600063ffffffff82169050919050565b82818337600083830152505050565b60005b838110156134b0578082015181840152602081019050613495565b838111156134bf576000848401525b50505050565b600060028204905060018216806134dd57607f821691505b602082108114156134f1576134f06135cd565b5b50919050565b61350082613673565b810181811067ffffffffffffffff8211171561351f5761351e61362b565b5b80604052505050565b600061353382613469565b91507fffffffffffffffffffffffffffffffffffffffffffffffffffffffffffffffff8214156135665761356561359e565b5b600182019050919050565b600061357c82613473565b915063ffffffff8214156135935761359261359e565b5b600182019050919050565b7f4e487b7100000000000000000000000000000000000000000000000000000000600052601160045260246000fd5b7f4e487b7100000000000000000000000000000000000000000000000000000000600052602260045260246000fd5b7f4e487b7100000000000000000000000000000000000000000000000000000000600052603260045260246000fd5b7f4e487b7100000000000000000000000000000000000000000000000000000000600052604160045260246000fd5b600080fd5b600080fd5b600080fd5b600080fd5b600080fd5b6000601f19601f8301169050919050565b7f4f776e61626c653a206e6577206f776e657220697320746865207a65726f206160008201527f6464726573730000000000000000000000000000000000000000000000000000602082015250565b7f4e6f7420612076616c6964204176617461722049440000000000000000000000600082015250565b7f4d6574614c696e6b20646f6573206e6f74206578697374000000000000000000600082015250565b7f4f776e61626c653a2063616c6c6572206973206e6f7420746865206f776e6572600082015250565b7f596f752061726520616c72656164792061206d656d6265720000000000000000600082015250565b7f41766174617220646f6573206e6f742065786973740000000000000000000000600082015250565b7f596f75206861766520746f2062652061206d656d626572000000000000000000600082015250565b6137d28161342b565b81146137dd57600080fd5b50565b6137e98161343d565b81146137f457600080fd5b50565b61380081613469565b811461380b57600080fd5b5056fea2646970667358221220ce76bc288dc2ab4749023af57af30711689b538880dbe79292c16a6206b8ef8164736f6c63430008070033",
  "linkReferences": {},
  "deployedLinkReferences": {}
}