{
  "_format": "hh-sol-artifact-1",
  "contractName": "MetaLinks",
  "sourceName": "contracts/MetaLinks.sol",
  "abi": [
    {
      "inputs": [],
      "stateMutability": "nonpayable",
      "type": "constructor"
    },
    {
      "anonymous": false,
      "inputs": [
        {
          "indexed": true,
          "internalType": "uint256",
          "name": "id",
          "type": "uint256"
        },
        {
          "indexed": true,
          "internalType": "address[]",
          "name": "newAddresses",
          "type": "address[]"
        }
      ],
      "name": "AvatarAddressAdded",
      "type": "event"
    },
    {
      "anonymous": false,
      "inputs": [
        {
          "indexed": true,
          "internalType": "uint256",
          "name": "avatarID",
          "type": "uint256"
        },
        {
          "indexed": true,
          "internalType": "string",
          "name": "name",
          "type": "string"
        },
        {
          "indexed": true,
          "internalType": "string",
          "name": "aka",
          "type": "string"
        },
        {
          "indexed": false,
          "internalType": "string",
          "name": "bio",
          "type": "string"
        },
        {
          "indexed": false,
          "internalType": "string",
          "name": "avatar",
          "type": "string"
        }
      ],
      "name": "AvatarCreated",
      "type": "event"
    },
    {
      "anonymous": false,
      "inputs": [
        {
          "indexed": true,
          "internalType": "uint256",
          "name": "avatarID",
          "type": "uint256"
        },
        {
          "indexed": true,
          "internalType": "uint256",
          "name": "newMetaLinkID",
          "type": "uint256"
        },
        {
          "indexed": true,
          "internalType": "string",
          "name": "name",
          "type": "string"
        },
        {
          "indexed": false,
          "internalType": "string",
          "name": "aka",
          "type": "string"
        },
        {
          "indexed": false,
          "internalType": "string",
          "name": "universe",
          "type": "string"
        },
        {
          "indexed": false,
          "internalType": "string",
          "name": "link",
          "type": "string"
        },
        {
          "indexed": false,
          "internalType": "string",
          "name": "avatar",
          "type": "string"
        },
        {
          "indexed": false,
          "internalType": "bool",
          "name": "active",
          "type": "bool"
        }
      ],
      "name": "MetaLinkAdded",
      "type": "event"
    },
    {
      "anonymous": false,
      "inputs": [
        {
          "indexed": true,
          "internalType": "address",
          "name": "previousOwner",
          "type": "address"
        },
        {
          "indexed": true,
          "internalType": "address",
          "name": "newOwner",
          "type": "address"
        }
      ],
      "name": "OwnershipTransferred",
      "type": "event"
    },
    {
      "inputs": [
        {
          "internalType": "address[]",
          "name": "addresses",
          "type": "address[]"
        }
      ],
      "name": "addAvatarAddress",
      "outputs": [
        {
          "internalType": "bool",
          "name": "",
          "type": "bool"
        }
      ],
      "stateMutability": "nonpayable",
      "type": "function"
    },
    {
      "inputs": [
        {
          "internalType": "string",
          "name": "name",
          "type": "string"
        },
        {
          "internalType": "string",
          "name": "aka",
          "type": "string"
        },
        {
          "internalType": "string",
          "name": "universe",
          "type": "string"
        },
        {
          "internalType": "string",
          "name": "avatar",
          "type": "string"
        },
        {
          "internalType": "string",
          "name": "link",
          "type": "string"
        },
        {
          "internalType": "bool",
          "name": "active",
          "type": "bool"
        }
      ],
      "name": "addMetaLinkMetalink",
      "outputs": [
        {
          "internalType": "bool",
          "name": "",
          "type": "bool"
        }
      ],
      "stateMutability": "nonpayable",
      "type": "function"
    },
    {
      "inputs": [
        {
          "internalType": "address",
          "name": "",
          "type": "address"
        }
      ],
      "name": "addressesToMID",
      "outputs": [
        {
          "internalType": "uint256",
          "name": "",
          "type": "uint256"
        }
      ],
      "stateMutability": "view",
      "type": "function"
    },
    {
      "inputs": [
        {
          "internalType": "string",
          "name": "name",
          "type": "string"
        },
        {
          "internalType": "string",
          "name": "aka",
          "type": "string"
        },
        {
          "internalType": "string",
          "name": "bio",
          "type": "string"
        },
        {
          "internalType": "string",
          "name": "avatar",
          "type": "string"
        }
      ],
      "name": "createAvatar",
      "outputs": [
        {
          "internalType": "uint256",
          "name": "",
          "type": "uint256"
        }
      ],
      "stateMutability": "nonpayable",
      "type": "function"
    },
    {
      "inputs": [
        {
          "internalType": "uint256",
          "name": "id",
          "type": "uint256"
        }
      ],
      "name": "getAvatar",
      "outputs": [
        {
          "internalType": "string",
          "name": "",
          "type": "string"
        },
        {
          "internalType": "string",
          "name": "",
          "type": "string"
        },
        {
          "internalType": "string",
          "name": "",
          "type": "string"
        },
        {
          "internalType": "string",
          "name": "",
          "type": "string"
        },
        {
          "internalType": "uint256[]",
          "name": "links",
          "type": "uint256[]"
        }
      ],
      "stateMutability": "view",
      "type": "function"
    },
    {
      "inputs": [
        {
          "internalType": "address",
          "name": "addrss",
          "type": "address"
        }
      ],
      "name": "getAvatarID",
      "outputs": [
        {
          "internalType": "uint256",
          "name": "",
          "type": "uint256"
        }
      ],
      "stateMutability": "view",
      "type": "function"
    },
    {
      "inputs": [],
      "name": "getMyAvatarID",
      "outputs": [
        {
          "internalType": "uint256",
          "name": "",
          "type": "uint256"
        }
      ],
      "stateMutability": "view",
      "type": "function"
    },
    {
      "inputs": [
        {
          "internalType": "uint256",
          "name": "",
          "type": "uint256"
        }
      ],
      "name": "midsToAvatars",
      "outputs": [
        {
          "internalType": "string",
          "name": "name",
          "type": "string"
        },
        {
          "internalType": "string",
          "name": "aka",
          "type": "string"
        },
        {
          "internalType": "string",
          "name": "bio",
          "type": "string"
        },
        {
          "internalType": "string",
          "name": "avatar",
          "type": "string"
        }
      ],
      "stateMutability": "view",
      "type": "function"
    },
    {
      "inputs": [
        {
          "internalType": "uint256",
          "name": "",
          "type": "uint256"
        }
      ],
      "name": "midsToMetaLinks",
      "outputs": [
        {
          "internalType": "string",
          "name": "name",
          "type": "string"
        },
        {
          "internalType": "string",
          "name": "aka",
          "type": "string"
        },
        {
          "internalType": "string",
          "name": "universe",
          "type": "string"
        },
        {
          "internalType": "string",
          "name": "link",
          "type": "string"
        },
        {
          "internalType": "string",
          "name": "avatar",
          "type": "string"
        },
        {
          "internalType": "bool",
          "name": "active",
          "type": "bool"
        }
      ],
      "stateMutability": "view",
      "type": "function"
    },
    {
      "inputs": [],
      "name": "owner",
      "outputs": [
        {
          "internalType": "address",
          "name": "",
          "type": "address"
        }
      ],
      "stateMutability": "view",
      "type": "function"
    },
    {
      "inputs": [],
      "name": "renounceOwnership",
      "outputs": [],
      "stateMutability": "nonpayable",
      "type": "function"
    },
    {
      "inputs": [],
      "name": "totalAvatars",
      "outputs": [
        {
          "internalType": "uint256",
          "name": "",
          "type": "uint256"
        }
      ],
      "stateMutability": "view",
      "type": "function"
    },
    {
      "inputs": [],
      "name": "totalMetaLinks",
      "outputs": [
        {
          "internalType": "uint256",
          "name": "",
          "type": "uint256"
        }
      ],
      "stateMutability": "view",
      "type": "function"
    },
    {
      "inputs": [
        {
          "internalType": "address",
          "name": "newOwner",
          "type": "address"
        }
      ],
      "name": "transferOwnership",
      "outputs": [],
      "stateMutability": "nonpayable",
      "type": "function"
    }
  ],
  "bytecode": "0x608060405234801561001057600080fd5b5061002d61002261003260201b60201c565b61003a60201b60201c565b6100fe565b600033905090565b60008060009054906101000a900473ffffffffffffffffffffffffffffffffffffffff169050816000806101000a81548173ffffffffffffffffffffffffffffffffffffffff021916908373ffffffffffffffffffffffffffffffffffffffff1602179055508173ffffffffffffffffffffffffffffffffffffffff168173ffffffffffffffffffffffffffffffffffffffff167f8be0079c531659141344cd1fd0a4f28419497f9722a3daafe3b4186f6b6457e060405160405180910390a35050565b61246f806200010e6000396000f3fe608060405234801561001057600080fd5b50600436106100ea5760003560e01c80637a2b87121161008c578063a0e5deed11610066578063a0e5deed14610291578063b48375e4146102c1578063baea526f146102df578063f2fde38b146102fd576100ea565b80637a2b87121461021057806386e7e492146102435780638da5cb5b14610273576100ea565b80635a4f0b2f116100c85780635a4f0b2f146101885780636ac156db146101b8578063715018a6146101d6578063787ee815146101e0576100ea565b80631328ec9b146100ef5780633c3ca3571461012357806352cfbb4314610153575b600080fd5b61010960048036038101906101049190611a0c565b610319565b60405161011a959493929190611d62565b60405180910390f35b61013d6004803603810190610138919061181c565b610610565b60405161014a9190611f4b565b60405180910390f35b61016d60048036038101906101689190611a0c565b610890565b60405161017f96959493929190611e47565b60405180910390f35b6101a2600480360381019061019d91906117a6565b610b81565b6040516101af9190611f4b565b60405180910390f35b6101c0610bca565b6040516101cd9190611f4b565b60405180910390f35b6101de610bd0565b005b6101fa60048036038101906101f591906117a6565b610c58565b6040516102079190611f4b565b60405180910390f35b61022a60048036038101906102259190611a0c565b610c70565b60405161023a9493929190611d01565b60405180910390f35b61025d600480360381019061025891906117d3565b610ec0565b60405161026a9190611caf565b60405180910390f35b61027b61105e565b6040516102889190611c94565b60405180910390f35b6102ab60048036038101906102a691906118f3565b611087565b6040516102b89190611caf565b60405180910390f35b6102c9611358565b6040516102d69190611f4b565b60405180910390f35b6102e761139f565b6040516102f49190611f4b565b60405180910390f35b610317600480360381019061031291906117a6565b6113a5565b005b60608060608060606000600460008881526020019081526020016000206040518060a00160405290816000820180546103519061216b565b80601f016020809104026020016040519081016040528092919081815260200182805461037d9061216b565b80156103ca5780601f1061039f576101008083540402835291602001916103ca565b820191906000526020600020905b8154815290600101906020018083116103ad57829003601f168201915b505050505081526020016001820180546103e39061216b565b80601f016020809104026020016040519081016040528092919081815260200182805461040f9061216b565b801561045c5780601f106104315761010080835404028352916020019161045c565b820191906000526020600020905b81548152906001019060200180831161043f57829003601f168201915b505050505081526020016002820180546104759061216b565b80601f01602080910402602001604051908101604052809291908181526020018280546104a19061216b565b80156104ee5780601f106104c3576101008083540402835291602001916104ee565b820191906000526020600020905b8154815290600101906020018083116104d157829003601f168201915b505050505081526020016003820180546105079061216b565b80601f01602080910402602001604051908101604052809291908181526020018280546105339061216b565b80156105805780601f1061055557610100808354040283529160200191610580565b820191906000526020600020905b81548152906001019060200180831161056357829003601f168201915b50505050508152602001600482018054806020026020016040519081016040528092919081815260200182805480156105d857602002820191906000526020600020905b8154815260200190600101908083116105c4575b505050505081525050905080600001518160200151826040015183606001518460800151955095509550955095505091939590929450565b600080600360003373ffffffffffffffffffffffffffffffffffffffff1673ffffffffffffffffffffffffffffffffffffffff1681526020019081526020016000205414610693576040517f08c379a000000000000000000000000000000000000000000000000000000000815260040161068a90611f0b565b60405180910390fd5b6000600180546106a3919061207b565b905080600360003373ffffffffffffffffffffffffffffffffffffffff1673ffffffffffffffffffffffffffffffffffffffff1681526020019081526020016000208190555060006040518060a00160405280888152602001878152602001868152602001858152602001600067ffffffffffffffff811115610729576107286122d1565b5b6040519080825280602002602001820160405280156107575781602001602082028036833780820191505090505b5081525090508060046000848152602001908152602001600020600082015181600001908051906020019061078d929190611569565b5060208201518160010190805190602001906107aa929190611569565b5060408201518160020190805190602001906107c7929190611569565b5060608201518160030190805190602001906107e4929190611569565b5060808201518160040190805190602001906108019291906115ef565b5090505060016000815480929190610818906121ce565b91905055508560405161082b9190611c7d565b6040518091039020876040516108419190611c7d565b6040518091039020837f4dc183066ea1df4e44c1bf7791d30dc7c6115e88c10838793e3be56fad008924888860405161087b929190611cca565b60405180910390a48192505050949350505050565b60056020528060005260406000206000915090508060000180546108b39061216b565b80601f01602080910402602001604051908101604052809291908181526020018280546108df9061216b565b801561092c5780601f106109015761010080835404028352916020019161092c565b820191906000526020600020905b81548152906001019060200180831161090f57829003601f168201915b5050505050908060010180546109419061216b565b80601f016020809104026020016040519081016040528092919081815260200182805461096d9061216b565b80156109ba5780601f1061098f576101008083540402835291602001916109ba565b820191906000526020600020905b81548152906001019060200180831161099d57829003601f168201915b5050505050908060020180546109cf9061216b565b80601f01602080910402602001604051908101604052809291908181526020018280546109fb9061216b565b8015610a485780601f10610a1d57610100808354040283529160200191610a48565b820191906000526020600020905b815481529060010190602001808311610a2b57829003601f168201915b505050505090806003018054610a5d9061216b565b80601f0160208091040260200160405190810160405280929190818152602001828054610a899061216b565b8015610ad65780601f10610aab57610100808354040283529160200191610ad6565b820191906000526020600020905b815481529060010190602001808311610ab957829003601f168201915b505050505090806004018054610aeb9061216b565b80601f0160208091040260200160405190810160405280929190818152602001828054610b179061216b565b8015610b645780601f10610b3957610100808354040283529160200191610b64565b820191906000526020600020905b815481529060010190602001808311610b4757829003601f168201915b5050505050908060050160009054906101000a900460ff16905086565b6000600360008373ffffffffffffffffffffffffffffffffffffffff1673ffffffffffffffffffffffffffffffffffffffff168152602001908152602001600020549050919050565b60015481565b610bd861149d565b73ffffffffffffffffffffffffffffffffffffffff16610bf661105e565b73ffffffffffffffffffffffffffffffffffffffff1614610c4c576040517f08c379a0000000000000000000000000000000000000000000000000000000008152600401610c4390611eeb565b60405180910390fd5b610c5660006114a5565b565b60036020528060005260406000206000915090505481565b6004602052806000526040600020600091509050806000018054610c939061216b565b80601f0160208091040260200160405190810160405280929190818152602001828054610cbf9061216b565b8015610d0c5780601f10610ce157610100808354040283529160200191610d0c565b820191906000526020600020905b815481529060010190602001808311610cef57829003601f168201915b505050505090806001018054610d219061216b565b80601f0160208091040260200160405190810160405280929190818152602001828054610d4d9061216b565b8015610d9a5780601f10610d6f57610100808354040283529160200191610d9a565b820191906000526020600020905b815481529060010190602001808311610d7d57829003601f168201915b505050505090806002018054610daf9061216b565b80601f0160208091040260200160405190810160405280929190818152602001828054610ddb9061216b565b8015610e285780601f10610dfd57610100808354040283529160200191610e28565b820191906000526020600020905b815481529060010190602001808311610e0b57829003601f168201915b505050505090806003018054610e3d9061216b565b80601f0160208091040260200160405190810160405280929190818152602001828054610e699061216b565b8015610eb65780601f10610e8b57610100808354040283529160200191610eb6565b820191906000526020600020905b815481529060010190602001808311610e9957829003601f168201915b5050505050905084565b600080600360003373ffffffffffffffffffffffffffffffffffffffff1673ffffffffffffffffffffffffffffffffffffffff1681526020019081526020016000205411610f43576040517f08c379a0000000000000000000000000000000000000000000000000000000008152600401610f3a90611f2b565b60405180910390fd5b6000600360003373ffffffffffffffffffffffffffffffffffffffff1673ffffffffffffffffffffffffffffffffffffffff16815260200190815260200160002054905060005b83518163ffffffff161015611010578160036000868463ffffffff1681518110610fb757610fb66122a2565b5b602002602001015173ffffffffffffffffffffffffffffffffffffffff1673ffffffffffffffffffffffffffffffffffffffff16815260200190815260200160002081905550808061100890612217565b915050610f8a565b508260405161101f9190611c66565b6040518091039020817f0e3ebb7eb6b18608937bced5d13fe9ac65e1834d44b8731ad1f496029d3e762c60405160405180910390a36001915050919050565b60008060009054906101000a900473ffffffffffffffffffffffffffffffffffffffff16905090565b600080600360003373ffffffffffffffffffffffffffffffffffffffff1673ffffffffffffffffffffffffffffffffffffffff168152602001908152602001600020541161110a576040517f08c379a000000000000000000000000000000000000000000000000000000000815260040161110190611f2b565b60405180910390fd5b600060046000600360003373ffffffffffffffffffffffffffffffffffffffff1673ffffffffffffffffffffffffffffffffffffffff168152602001908152602001600020548152602001908152602001600020905060006001600254611171919061207b565b905060006040518060c001604052808b81526020018a81526020018981526020018781526020018881526020018615158152509050806005600084815260200190815260200160002060008201518160000190805190602001906111d6929190611569565b5060208201518160010190805190602001906111f3929190611569565b506040820151816002019080519060200190611210929190611569565b50606082015181600301908051906020019061122d929190611569565b50608082015181600401908051906020019061124a929190611569565b5060a08201518160050160006101000a81548160ff02191690831515021790555090505082600401829080600181540180825580915050600190039060005260206000200160009091909190915055600260008154809291906112ac906121ce565b9190505550896040516112bf9190611c7d565b6040518091039020600360003373ffffffffffffffffffffffffffffffffffffffff1673ffffffffffffffffffffffffffffffffffffffff16815260200190815260200160002054837fb1d0a3613251aad6ecd224bf262aec8d5c88b57c8632c3f0a7fee8f0ad5d915d8c8c8b8d8c60405161133f959493929190611dd8565b60405180910390a4600193505050509695505050505050565b6000600360003373ffffffffffffffffffffffffffffffffffffffff1673ffffffffffffffffffffffffffffffffffffffff16815260200190815260200160002054905090565b60025481565b6113ad61149d565b73ffffffffffffffffffffffffffffffffffffffff166113cb61105e565b73ffffffffffffffffffffffffffffffffffffffff1614611421576040517f08c379a000000000000000000000000000000000000000000000000000000000815260040161141890611eeb565b60405180910390fd5b600073ffffffffffffffffffffffffffffffffffffffff168173ffffffffffffffffffffffffffffffffffffffff161415611491576040517f08c379a000000000000000000000000000000000000000000000000000000000815260040161148890611ecb565b60405180910390fd5b61149a816114a5565b50565b600033905090565b60008060009054906101000a900473ffffffffffffffffffffffffffffffffffffffff169050816000806101000a81548173ffffffffffffffffffffffffffffffffffffffff021916908373ffffffffffffffffffffffffffffffffffffffff1602179055508173ffffffffffffffffffffffffffffffffffffffff168173ffffffffffffffffffffffffffffffffffffffff167f8be0079c531659141344cd1fd0a4f28419497f9722a3daafe3b4186f6b6457e060405160405180910390a35050565b8280546115759061216b565b90600052602060002090601f01602090048101928261159757600085556115de565b82601f106115b057805160ff19168380011785556115de565b828001600101855582156115de579182015b828111156115dd5782518255916020019190600101906115c2565b5b5090506115eb919061163c565b5090565b82805482825590600052602060002090810192821561162b579160200282015b8281111561162a57825182559160200191906001019061160f565b5b509050611638919061163c565b5090565b5b8082111561165557600081600090555060010161163d565b5090565b600061166c61166784611f8b565b611f66565b9050808382526020820190508285602086028201111561168f5761168e612305565b5b60005b858110156116bf57816116a5888261170b565b845260208401935060208301925050600181019050611692565b5050509392505050565b60006116dc6116d784611fb7565b611f66565b9050828152602081018484840111156116f8576116f761230a565b5b611703848285612129565b509392505050565b60008135905061171a816123f4565b92915050565b600082601f83011261173557611734612300565b5b8135611745848260208601611659565b91505092915050565b60008135905061175d8161240b565b92915050565b600082601f83011261177857611777612300565b5b81356117888482602086016116c9565b91505092915050565b6000813590506117a081612422565b92915050565b6000602082840312156117bc576117bb612314565b5b60006117ca8482850161170b565b91505092915050565b6000602082840312156117e9576117e8612314565b5b600082013567ffffffffffffffff8111156118075761180661230f565b5b61181384828501611720565b91505092915050565b6000806000806080858703121561183657611835612314565b5b600085013567ffffffffffffffff8111156118545761185361230f565b5b61186087828801611763565b945050602085013567ffffffffffffffff8111156118815761188061230f565b5b61188d87828801611763565b935050604085013567ffffffffffffffff8111156118ae576118ad61230f565b5b6118ba87828801611763565b925050606085013567ffffffffffffffff8111156118db576118da61230f565b5b6118e787828801611763565b91505092959194509250565b60008060008060008060c087890312156119105761190f612314565b5b600087013567ffffffffffffffff81111561192e5761192d61230f565b5b61193a89828a01611763565b965050602087013567ffffffffffffffff81111561195b5761195a61230f565b5b61196789828a01611763565b955050604087013567ffffffffffffffff8111156119885761198761230f565b5b61199489828a01611763565b945050606087013567ffffffffffffffff8111156119b5576119b461230f565b5b6119c189828a01611763565b935050608087013567ffffffffffffffff8111156119e2576119e161230f565b5b6119ee89828a01611763565b92505060a06119ff89828a0161174e565b9150509295509295509295565b600060208284031215611a2257611a21612314565b5b6000611a3084828501611791565b91505092915050565b6000611a458383611a78565b60208301905092915050565b6000611a5d8383611c48565b60208301905092915050565b611a72816120d1565b82525050565b611a81816120d1565b82525050565b6000611a9282612008565b611a9c8185612043565b9350611aa783611fe8565b8060005b83811015611ad8578151611abf8882611a39565b9750611aca83612029565b925050600181019050611aab565b5085935050505092915050565b6000611af082612013565b611afa818561204e565b9350611b0583611ff8565b8060005b83811015611b36578151611b1d8882611a51565b9750611b2883612036565b925050600181019050611b09565b5085935050505092915050565b611b4c816120e3565b82525050565b6000611b5d8261201e565b611b67818561205f565b9350611b77818560208601612138565b611b8081612319565b840191505092915050565b6000611b968261201e565b611ba08185612070565b9350611bb0818560208601612138565b80840191505092915050565b6000611bc960268361205f565b9150611bd48261232a565b604082019050919050565b6000611bec60208361205f565b9150611bf782612379565b602082019050919050565b6000611c0f60188361205f565b9150611c1a826123a2565b602082019050919050565b6000611c3260178361205f565b9150611c3d826123cb565b602082019050919050565b611c518161210f565b82525050565b611c608161210f565b82525050565b6000611c728284611a87565b915081905092915050565b6000611c898284611b8b565b915081905092915050565b6000602082019050611ca96000830184611a69565b92915050565b6000602082019050611cc46000830184611b43565b92915050565b60006040820190508181036000830152611ce48185611b52565b90508181036020830152611cf88184611b52565b90509392505050565b60006080820190508181036000830152611d1b8187611b52565b90508181036020830152611d2f8186611b52565b90508181036040830152611d438185611b52565b90508181036060830152611d578184611b52565b905095945050505050565b600060a0820190508181036000830152611d7c8188611b52565b90508181036020830152611d908187611b52565b90508181036040830152611da48186611b52565b90508181036060830152611db88185611b52565b90508181036080830152611dcc8184611ae5565b90509695505050505050565b600060a0820190508181036000830152611df28188611b52565b90508181036020830152611e068187611b52565b90508181036040830152611e1a8186611b52565b90508181036060830152611e2e8185611b52565b9050611e3d6080830184611b43565b9695505050505050565b600060c0820190508181036000830152611e618189611b52565b90508181036020830152611e758188611b52565b90508181036040830152611e898187611b52565b90508181036060830152611e9d8186611b52565b90508181036080830152611eb18185611b52565b9050611ec060a0830184611b43565b979650505050505050565b60006020820190508181036000830152611ee481611bbc565b9050919050565b60006020820190508181036000830152611f0481611bdf565b9050919050565b60006020820190508181036000830152611f2481611c02565b9050919050565b60006020820190508181036000830152611f4481611c25565b9050919050565b6000602082019050611f606000830184611c57565b92915050565b6000611f70611f81565b9050611f7c828261219d565b919050565b6000604051905090565b600067ffffffffffffffff821115611fa657611fa56122d1565b5b602082029050602081019050919050565b600067ffffffffffffffff821115611fd257611fd16122d1565b5b611fdb82612319565b9050602081019050919050565b6000819050602082019050919050565b6000819050602082019050919050565b600081519050919050565b600081519050919050565b600081519050919050565b6000602082019050919050565b6000602082019050919050565b600081905092915050565b600082825260208201905092915050565b600082825260208201905092915050565b600081905092915050565b60006120868261210f565b91506120918361210f565b9250827fffffffffffffffffffffffffffffffffffffffffffffffffffffffffffffffff038211156120c6576120c5612244565b5b828201905092915050565b60006120dc826120ef565b9050919050565b60008115159050919050565b600073ffffffffffffffffffffffffffffffffffffffff82169050919050565b6000819050919050565b600063ffffffff82169050919050565b82818337600083830152505050565b60005b8381101561215657808201518184015260208101905061213b565b83811115612165576000848401525b50505050565b6000600282049050600182168061218357607f821691505b6020821081141561219757612196612273565b5b50919050565b6121a682612319565b810181811067ffffffffffffffff821117156121c5576121c46122d1565b5b80604052505050565b60006121d98261210f565b91507fffffffffffffffffffffffffffffffffffffffffffffffffffffffffffffffff82141561220c5761220b612244565b5b600182019050919050565b600061222282612119565b915063ffffffff82141561223957612238612244565b5b600182019050919050565b7f4e487b7100000000000000000000000000000000000000000000000000000000600052601160045260246000fd5b7f4e487b7100000000000000000000000000000000000000000000000000000000600052602260045260246000fd5b7f4e487b7100000000000000000000000000000000000000000000000000000000600052603260045260246000fd5b7f4e487b7100000000000000000000000000000000000000000000000000000000600052604160045260246000fd5b600080fd5b600080fd5b600080fd5b600080fd5b600080fd5b6000601f19601f8301169050919050565b7f4f776e61626c653a206e6577206f776e657220697320746865207a65726f206160008201527f6464726573730000000000000000000000000000000000000000000000000000602082015250565b7f4f776e61626c653a2063616c6c6572206973206e6f7420746865206f776e6572600082015250565b7f596f752061726520616c72656164792061206d656d6265720000000000000000600082015250565b7f596f75206861766520746f2062652061206d656d626572000000000000000000600082015250565b6123fd816120d1565b811461240857600080fd5b50565b612414816120e3565b811461241f57600080fd5b50565b61242b8161210f565b811461243657600080fd5b5056fea26469706673582212206e36a960ba66201e4f4f6304eb2e9df9c901ae800837639622a6d6068138b9d664736f6c63430008070033",
  "linkReferences": {},
  "deployedLinkReferences": {}
}