{
  "_format": "hh-sol-artifact-1",
  "contractName": "MetaLinks",
  "sourceName": "contracts/MetaLinks.sol",
  "abi": [
    {
      "inputs": [],
      "stateMutability": "nonpayable",
      "type": "constructor"
    },
    {
      "anonymous": false,
      "inputs": [
        {
          "indexed": true,
          "internalType": "uint256",
          "name": "avatarID",
          "type": "uint256"
        },
        {
          "indexed": false,
          "internalType": "address[]",
          "name": "newAddresses",
          "type": "address[]"
        }
      ],
      "name": "AvatarAddressesAdded",
      "type": "event"
    },
    {
      "anonymous": false,
      "inputs": [
        {
          "indexed": true,
          "internalType": "uint256",
          "name": "avatarID",
          "type": "uint256"
        },
        {
          "indexed": false,
          "internalType": "string",
          "name": "name",
          "type": "string"
        },
        {
          "indexed": false,
          "internalType": "string",
          "name": "aka",
          "type": "string"
        },
        {
          "indexed": false,
          "internalType": "string",
          "name": "bio",
          "type": "string"
        },
        {
          "indexed": false,
          "internalType": "string",
          "name": "avatar",
          "type": "string"
        },
        {
          "indexed": false,
          "internalType": "string",
          "name": "bgAvatar",
          "type": "string"
        }
      ],
      "name": "AvatarCreated",
      "type": "event"
    },
    {
      "anonymous": false,
      "inputs": [
        {
          "indexed": true,
          "internalType": "uint256",
          "name": "avatarID",
          "type": "uint256"
        },
        {
          "indexed": true,
          "internalType": "uint256",
          "name": "newMetaLinkID",
          "type": "uint256"
        },
        {
          "indexed": false,
          "internalType": "string",
          "name": "name",
          "type": "string"
        },
        {
          "indexed": false,
          "internalType": "string",
          "name": "aka",
          "type": "string"
        },
        {
          "indexed": false,
          "internalType": "string",
          "name": "bio",
          "type": "string"
        },
        {
          "indexed": false,
          "internalType": "string",
          "name": "universe",
          "type": "string"
        },
        {
          "indexed": false,
          "internalType": "string",
          "name": "link",
          "type": "string"
        },
        {
          "indexed": false,
          "internalType": "string",
          "name": "avatar",
          "type": "string"
        },
        {
          "indexed": false,
          "internalType": "string",
          "name": "bgAvatar",
          "type": "string"
        },
        {
          "indexed": false,
          "internalType": "bool",
          "name": "active",
          "type": "bool"
        }
      ],
      "name": "MetaLinkAdded",
      "type": "event"
    },
    {
      "anonymous": false,
      "inputs": [
        {
          "indexed": true,
          "internalType": "address",
          "name": "previousOwner",
          "type": "address"
        },
        {
          "indexed": true,
          "internalType": "address",
          "name": "newOwner",
          "type": "address"
        }
      ],
      "name": "OwnershipTransferred",
      "type": "event"
    },
    {
      "inputs": [
        {
          "internalType": "address[]",
          "name": "_addresses",
          "type": "address[]"
        }
      ],
      "name": "addAvatarAddress",
      "outputs": [
        {
          "internalType": "bool",
          "name": "",
          "type": "bool"
        }
      ],
      "stateMutability": "nonpayable",
      "type": "function"
    },
    {
      "inputs": [
        {
          "internalType": "string",
          "name": "_name",
          "type": "string"
        },
        {
          "internalType": "string",
          "name": "_aka",
          "type": "string"
        },
        {
          "internalType": "string",
          "name": "_bio",
          "type": "string"
        },
        {
          "internalType": "string",
          "name": "_universe",
          "type": "string"
        },
        {
          "internalType": "string",
          "name": "_avatar",
          "type": "string"
        },
        {
          "internalType": "string",
          "name": "_bg_avatar",
          "type": "string"
        },
        {
          "internalType": "string",
          "name": "_link",
          "type": "string"
        },
        {
          "internalType": "bool",
          "name": "_active",
          "type": "bool"
        }
      ],
      "name": "addMetaLinkMetalink",
      "outputs": [
        {
          "internalType": "bool",
          "name": "",
          "type": "bool"
        }
      ],
      "stateMutability": "nonpayable",
      "type": "function"
    },
    {
      "inputs": [
        {
          "internalType": "address",
          "name": "",
          "type": "address"
        }
      ],
      "name": "addressesToMID",
      "outputs": [
        {
          "internalType": "uint256",
          "name": "",
          "type": "uint256"
        }
      ],
      "stateMutability": "view",
      "type": "function"
    },
    {
      "inputs": [
        {
          "internalType": "string",
          "name": "_name",
          "type": "string"
        },
        {
          "internalType": "string",
          "name": "_aka",
          "type": "string"
        },
        {
          "internalType": "string",
          "name": "_bio",
          "type": "string"
        },
        {
          "internalType": "string",
          "name": "_avatar",
          "type": "string"
        },
        {
          "internalType": "string",
          "name": "_bg_avatar",
          "type": "string"
        }
      ],
      "name": "createAvatar",
      "outputs": [
        {
          "internalType": "uint256",
          "name": "",
          "type": "uint256"
        }
      ],
      "stateMutability": "nonpayable",
      "type": "function"
    },
    {
      "inputs": [
        {
          "internalType": "address",
          "name": "_address",
          "type": "address"
        }
      ],
      "name": "getAvatarByAddress",
      "outputs": [
        {
          "internalType": "string",
          "name": "",
          "type": "string"
        },
        {
          "internalType": "string",
          "name": "",
          "type": "string"
        },
        {
          "internalType": "string",
          "name": "",
          "type": "string"
        },
        {
          "internalType": "string",
          "name": "",
          "type": "string"
        },
        {
          "internalType": "string",
          "name": "",
          "type": "string"
        },
        {
          "internalType": "uint256[]",
          "name": "links",
          "type": "uint256[]"
        }
      ],
      "stateMutability": "view",
      "type": "function"
    },
    {
      "inputs": [
        {
          "internalType": "uint256",
          "name": "_id",
          "type": "uint256"
        }
      ],
      "name": "getAvatarById",
      "outputs": [
        {
          "internalType": "string",
          "name": "",
          "type": "string"
        },
        {
          "internalType": "string",
          "name": "",
          "type": "string"
        },
        {
          "internalType": "string",
          "name": "",
          "type": "string"
        },
        {
          "internalType": "string",
          "name": "",
          "type": "string"
        },
        {
          "internalType": "string",
          "name": "",
          "type": "string"
        },
        {
          "internalType": "uint256[]",
          "name": "links",
          "type": "uint256[]"
        }
      ],
      "stateMutability": "view",
      "type": "function"
    },
    {
      "inputs": [
        {
          "internalType": "address",
          "name": "_address",
          "type": "address"
        }
      ],
      "name": "getAvatarID",
      "outputs": [
        {
          "internalType": "uint256",
          "name": "",
          "type": "uint256"
        }
      ],
      "stateMutability": "view",
      "type": "function"
    },
    {
      "inputs": [
        {
          "internalType": "uint256",
          "name": "_id",
          "type": "uint256"
        }
      ],
      "name": "getAvatarMetaLinkIDs",
      "outputs": [
        {
          "internalType": "uint256[]",
          "name": "links",
          "type": "uint256[]"
        }
      ],
      "stateMutability": "view",
      "type": "function"
    },
    {
      "inputs": [
        {
          "internalType": "uint256",
          "name": "_id",
          "type": "uint256"
        }
      ],
      "name": "getMetaLink",
      "outputs": [
        {
          "internalType": "string",
          "name": "",
          "type": "string"
        },
        {
          "internalType": "string",
          "name": "",
          "type": "string"
        },
        {
          "internalType": "string",
          "name": "",
          "type": "string"
        },
        {
          "internalType": "string",
          "name": "",
          "type": "string"
        },
        {
          "internalType": "string",
          "name": "",
          "type": "string"
        },
        {
          "internalType": "string",
          "name": "",
          "type": "string"
        }
      ],
      "stateMutability": "view",
      "type": "function"
    },
    {
      "inputs": [],
      "name": "getMyAvatarID",
      "outputs": [
        {
          "internalType": "uint256",
          "name": "",
          "type": "uint256"
        }
      ],
      "stateMutability": "view",
      "type": "function"
    },
    {
      "inputs": [
        {
          "internalType": "uint256",
          "name": "",
          "type": "uint256"
        }
      ],
      "name": "midsToAvatars",
      "outputs": [
        {
          "internalType": "string",
          "name": "name",
          "type": "string"
        },
        {
          "internalType": "string",
          "name": "aka",
          "type": "string"
        },
        {
          "internalType": "string",
          "name": "bio",
          "type": "string"
        },
        {
          "internalType": "string",
          "name": "avatar",
          "type": "string"
        },
        {
          "internalType": "string",
          "name": "bg_avatar",
          "type": "string"
        }
      ],
      "stateMutability": "view",
      "type": "function"
    },
    {
      "inputs": [
        {
          "internalType": "uint256",
          "name": "",
          "type": "uint256"
        }
      ],
      "name": "midsToMetaLinks",
      "outputs": [
        {
          "internalType": "string",
          "name": "name",
          "type": "string"
        },
        {
          "internalType": "string",
          "name": "aka",
          "type": "string"
        },
        {
          "internalType": "string",
          "name": "universe",
          "type": "string"
        },
        {
          "internalType": "string",
          "name": "link",
          "type": "string"
        },
        {
          "internalType": "string",
          "name": "bio",
          "type": "string"
        },
        {
          "internalType": "string",
          "name": "avatar",
          "type": "string"
        },
        {
          "internalType": "string",
          "name": "bg_avatar",
          "type": "string"
        },
        {
          "internalType": "bool",
          "name": "active",
          "type": "bool"
        }
      ],
      "stateMutability": "view",
      "type": "function"
    },
    {
      "inputs": [],
      "name": "owner",
      "outputs": [
        {
          "internalType": "address",
          "name": "",
          "type": "address"
        }
      ],
      "stateMutability": "view",
      "type": "function"
    },
    {
      "inputs": [],
      "name": "renounceOwnership",
      "outputs": [],
      "stateMutability": "nonpayable",
      "type": "function"
    },
    {
      "inputs": [],
      "name": "totalAddresses",
      "outputs": [
        {
          "internalType": "uint256",
          "name": "",
          "type": "uint256"
        }
      ],
      "stateMutability": "view",
      "type": "function"
    },
    {
      "inputs": [],
      "name": "totalAvatars",
      "outputs": [
        {
          "internalType": "uint256",
          "name": "",
          "type": "uint256"
        }
      ],
      "stateMutability": "view",
      "type": "function"
    },
    {
      "inputs": [],
      "name": "totalMetaLinks",
      "outputs": [
        {
          "internalType": "uint256",
          "name": "",
          "type": "uint256"
        }
      ],
      "stateMutability": "view",
      "type": "function"
    },
    {
      "inputs": [
        {
          "internalType": "address",
          "name": "newOwner",
          "type": "address"
        }
      ],
      "name": "transferOwnership",
      "outputs": [],
      "stateMutability": "nonpayable",
      "type": "function"
    }
  ],
  "bytecode": "0x60806040523480156200001157600080fd5b5062000032620000266200003860201b60201c565b6200004060201b60201c565b62000104565b600033905090565b60008060009054906101000a900473ffffffffffffffffffffffffffffffffffffffff169050816000806101000a81548173ffffffffffffffffffffffffffffffffffffffff021916908373ffffffffffffffffffffffffffffffffffffffff1602179055508173ffffffffffffffffffffffffffffffffffffffff168173ffffffffffffffffffffffffffffffffffffffff167f8be0079c531659141344cd1fd0a4f28419497f9722a3daafe3b4186f6b6457e060405160405180910390a35050565b6136d680620001146000396000f3fe608060405234801561001057600080fd5b50600436106101165760003560e01c8063787ee815116100a2578063b48375e411610071578063b48375e41461035b578063baea526f14610379578063cfad527714610397578063f2fde38b146103b5578063fc94b465146103d157610116565b8063787ee815146102a95780637a2b8712146102d957806386e7e4921461030d5780638da5cb5b1461033d57610116565b80634347fec8116100e95780634347fec8146101e557806352cfbb431461021a5780635a4f0b2f146102515780636ac156db14610281578063715018a61461029f57610116565b8063013808aa1461011b578063106f4ad81461014b578063215cc03114610180578063231cfdb7146101b5575b600080fd5b61013560048036038101906101309190612894565b610401565b604051610142919061313c565b60405180910390f35b61016560048036038101906101609190612b15565b61067f565b60405161017796959493929190612f22565b60405180910390f35b61019a6004803603810190610195919061281e565b610b49565b6040516101ac96959493929190612e97565b60405180910390f35b6101cf60048036038101906101ca919061299b565b610f70565b6040516101dc9190612e06565b60405180910390f35b6101ff60048036038101906101fa9190612b15565b611286565b60405161021196959493929190612e97565b60405180910390f35b610234600480360381019061022f9190612b15565b611668565b604051610248989796959493929190612fad565b60405180910390f35b61026b6004803603810190610266919061281e565b611a75565b604051610278919061313c565b60405180910390f35b610289611abe565b604051610296919061313c565b60405180910390f35b6102a7611ac4565b005b6102c360048036038101906102be919061281e565b611b4c565b6040516102d0919061313c565b60405180910390f35b6102f360048036038101906102ee9190612b15565b611b64565b604051610304959493929190612e21565b60405180910390f35b6103276004803603810190610322919061284b565b611e42565b6040516103349190612e06565b60405180910390f35b61034561203e565b6040516103529190612da7565b60405180910390f35b610363612067565b604051610370919061313c565b60405180910390f35b6103816120ae565b60405161038e919061313c565b60405180910390f35b61039f6120b4565b6040516103ac919061313c565b60405180910390f35b6103cf60048036038101906103ca919061281e565b6120ba565b005b6103eb60048036038101906103e69190612b15565b6121b2565b6040516103f89190612de4565b60405180910390f35b600080600460003373ffffffffffffffffffffffffffffffffffffffff1673ffffffffffffffffffffffffffffffffffffffff1681526020019081526020016000205414610484576040517f08c379a000000000000000000000000000000000000000000000000000000000815260040161047b906130dc565b60405180910390fd5b6000600180546104949190613267565b905080600460003373ffffffffffffffffffffffffffffffffffffffff1673ffffffffffffffffffffffffffffffffffffffff1681526020019081526020016000208190555060006040518060c00160405280898152602001888152602001878152602001868152602001858152602001600067ffffffffffffffff8111156105205761051f6134bd565b5b60405190808252806020026020018201604052801561054e5781602001602082028036833780820191505090505b508152509050806005600084815260200190815260200160002060008201518160000190805190602001906105849291906125e1565b5060208201518160010190805190602001906105a19291906125e1565b5060408201518160020190805190602001906105be9291906125e1565b5060608201518160030190805190602001906105db9291906125e1565b5060808201518160040190805190602001906105f89291906125e1565b5060a0820151816005019080519060200190610615929190612667565b509050506001600081548092919061062c906133ba565b9190505550817f33c79442820bff70e679fb367a83f1207627b18198401ecaf8700a48ca9b9c628989898989604051610669959493929190612e21565b60405180910390a2819250505095945050505050565b60608060608060608060008711801561069a57506002548711155b6106d9576040517f08c379a00000000000000000000000000000000000000000000000000000000081526004016106d09061309c565b60405180910390fd5b6000600660008981526020019081526020016000206040518061010001604052908160008201805461070a90613357565b80601f016020809104026020016040519081016040528092919081815260200182805461073690613357565b80156107835780601f1061075857610100808354040283529160200191610783565b820191906000526020600020905b81548152906001019060200180831161076657829003601f168201915b5050505050815260200160018201805461079c90613357565b80601f01602080910402602001604051908101604052809291908181526020018280546107c890613357565b80156108155780601f106107ea57610100808354040283529160200191610815565b820191906000526020600020905b8154815290600101906020018083116107f857829003601f168201915b5050505050815260200160028201805461082e90613357565b80601f016020809104026020016040519081016040528092919081815260200182805461085a90613357565b80156108a75780601f1061087c576101008083540402835291602001916108a7565b820191906000526020600020905b81548152906001019060200180831161088a57829003601f168201915b505050505081526020016003820180546108c090613357565b80601f01602080910402602001604051908101604052809291908181526020018280546108ec90613357565b80156109395780601f1061090e57610100808354040283529160200191610939565b820191906000526020600020905b81548152906001019060200180831161091c57829003601f168201915b5050505050815260200160048201805461095290613357565b80601f016020809104026020016040519081016040528092919081815260200182805461097e90613357565b80156109cb5780601f106109a0576101008083540402835291602001916109cb565b820191906000526020600020905b8154815290600101906020018083116109ae57829003601f168201915b505050505081526020016005820180546109e490613357565b80601f0160208091040260200160405190810160405280929190818152602001828054610a1090613357565b8015610a5d5780601f10610a3257610100808354040283529160200191610a5d565b820191906000526020600020905b815481529060010190602001808311610a4057829003601f168201915b50505050508152602001600682018054610a7690613357565b80601f0160208091040260200160405190810160405280929190818152602001828054610aa290613357565b8015610aef5780601f10610ac457610100808354040283529160200191610aef565b820191906000526020600020905b815481529060010190602001808311610ad257829003601f168201915b505050505081526020016007820160009054906101000a900460ff16151515158152505090508060000151816020015182608001518360a001518460c0015185606001519650965096509650965096505091939550919395565b6060806060806060806000600460008973ffffffffffffffffffffffffffffffffffffffff1673ffffffffffffffffffffffffffffffffffffffff168152602001908152602001600020549050600081118015610ba857506001548111155b610be7576040517f08c379a0000000000000000000000000000000000000000000000000000000008152600401610bde906130fc565b60405180910390fd5b6000600560008381526020019081526020016000206040518060c0016040529081600082018054610c1790613357565b80601f0160208091040260200160405190810160405280929190818152602001828054610c4390613357565b8015610c905780601f10610c6557610100808354040283529160200191610c90565b820191906000526020600020905b815481529060010190602001808311610c7357829003601f168201915b50505050508152602001600182018054610ca990613357565b80601f0160208091040260200160405190810160405280929190818152602001828054610cd590613357565b8015610d225780601f10610cf757610100808354040283529160200191610d22565b820191906000526020600020905b815481529060010190602001808311610d0557829003601f168201915b50505050508152602001600282018054610d3b90613357565b80601f0160208091040260200160405190810160405280929190818152602001828054610d6790613357565b8015610db45780601f10610d8957610100808354040283529160200191610db4565b820191906000526020600020905b815481529060010190602001808311610d9757829003601f168201915b50505050508152602001600382018054610dcd90613357565b80601f0160208091040260200160405190810160405280929190818152602001828054610df990613357565b8015610e465780601f10610e1b57610100808354040283529160200191610e46565b820191906000526020600020905b815481529060010190602001808311610e2957829003601f168201915b50505050508152602001600482018054610e5f90613357565b80601f0160208091040260200160405190810160405280929190818152602001828054610e8b90613357565b8015610ed85780601f10610ead57610100808354040283529160200191610ed8565b820191906000526020600020905b815481529060010190602001808311610ebb57829003601f168201915b5050505050815260200160058201805480602002602001604051908101604052809291908181526020018280548015610f3057602002820191906000526020600020905b815481526020019060010190808311610f1c575b5050505050815250509050806000015181602001518260400151836060015184608001518560a00151975097509750975097509750505091939550919395565b600080600460003373ffffffffffffffffffffffffffffffffffffffff1673ffffffffffffffffffffffffffffffffffffffff1681526020019081526020016000205411610ff3576040517f08c379a0000000000000000000000000000000000000000000000000000000008152600401610fea9061311c565b60405180910390fd5b600060056000600460003373ffffffffffffffffffffffffffffffffffffffff1673ffffffffffffffffffffffffffffffffffffffff16815260200190815260200160002054815260200190815260200160002090506000600160025461105a9190613267565b905060006040518061010001604052808d81526020018c81526020018a81526020018781526020018b81526020018981526020018881526020018615158152509050806006600084815260200190815260200160002060008201518160000190805190602001906110cc9291906125e1565b5060208201518160010190805190602001906110e99291906125e1565b5060408201518160020190805190602001906111069291906125e1565b5060608201518160030190805190602001906111239291906125e1565b5060808201518160040190805190602001906111409291906125e1565b5060a082015181600501908051906020019061115d9291906125e1565b5060c082015181600601908051906020019061117a9291906125e1565b5060e08201518160070160006101000a81548160ff02191690831515021790555090505082600501829080600181540180825580915050600190039060005260206000200160009091909190915055600260008154809291906111dc906133ba565b9190505550600460003373ffffffffffffffffffffffffffffffffffffffff1673ffffffffffffffffffffffffffffffffffffffff16815260200190815260200160002054827f01a01fbca88702fbfa390f3ae96229cf64dbfab947835c5446581c0da3c5bd5c8e8e8e8e8c8860a001518960c001518a60e0015160405161126b989796959493929190612fad565b60405180910390a36001935050505098975050505050505050565b6060806060806060806000871180156112a157506001548711155b6112e0576040517f08c379a00000000000000000000000000000000000000000000000000000000081526004016112d7906130fc565b60405180910390fd5b6000600560008981526020019081526020016000206040518060c001604052908160008201805461131090613357565b80601f016020809104026020016040519081016040528092919081815260200182805461133c90613357565b80156113895780601f1061135e57610100808354040283529160200191611389565b820191906000526020600020905b81548152906001019060200180831161136c57829003601f168201915b505050505081526020016001820180546113a290613357565b80601f01602080910402602001604051908101604052809291908181526020018280546113ce90613357565b801561141b5780601f106113f05761010080835404028352916020019161141b565b820191906000526020600020905b8154815290600101906020018083116113fe57829003601f168201915b5050505050815260200160028201805461143490613357565b80601f016020809104026020016040519081016040528092919081815260200182805461146090613357565b80156114ad5780601f10611482576101008083540402835291602001916114ad565b820191906000526020600020905b81548152906001019060200180831161149057829003601f168201915b505050505081526020016003820180546114c690613357565b80601f01602080910402602001604051908101604052809291908181526020018280546114f290613357565b801561153f5780601f106115145761010080835404028352916020019161153f565b820191906000526020600020905b81548152906001019060200180831161152257829003601f168201915b5050505050815260200160048201805461155890613357565b80601f016020809104026020016040519081016040528092919081815260200182805461158490613357565b80156115d15780601f106115a6576101008083540402835291602001916115d1565b820191906000526020600020905b8154815290600101906020018083116115b457829003601f168201915b505050505081526020016005820180548060200260200160405190810160405280929190818152602001828054801561162957602002820191906000526020600020905b815481526020019060010190808311611615575b5050505050815250509050806000015181602001518260400151836060015184608001518560a001519650965096509650965096505091939550919395565b600660205280600052604060002060009150905080600001805461168b90613357565b80601f01602080910402602001604051908101604052809291908181526020018280546116b790613357565b80156117045780601f106116d957610100808354040283529160200191611704565b820191906000526020600020905b8154815290600101906020018083116116e757829003601f168201915b50505050509080600101805461171990613357565b80601f016020809104026020016040519081016040528092919081815260200182805461174590613357565b80156117925780601f1061176757610100808354040283529160200191611792565b820191906000526020600020905b81548152906001019060200180831161177557829003601f168201915b5050505050908060020180546117a790613357565b80601f01602080910402602001604051908101604052809291908181526020018280546117d390613357565b80156118205780601f106117f557610100808354040283529160200191611820565b820191906000526020600020905b81548152906001019060200180831161180357829003601f168201915b50505050509080600301805461183590613357565b80601f016020809104026020016040519081016040528092919081815260200182805461186190613357565b80156118ae5780601f10611883576101008083540402835291602001916118ae565b820191906000526020600020905b81548152906001019060200180831161189157829003601f168201915b5050505050908060040180546118c390613357565b80601f01602080910402602001604051908101604052809291908181526020018280546118ef90613357565b801561193c5780601f106119115761010080835404028352916020019161193c565b820191906000526020600020905b81548152906001019060200180831161191f57829003601f168201915b50505050509080600501805461195190613357565b80601f016020809104026020016040519081016040528092919081815260200182805461197d90613357565b80156119ca5780601f1061199f576101008083540402835291602001916119ca565b820191906000526020600020905b8154815290600101906020018083116119ad57829003601f168201915b5050505050908060060180546119df90613357565b80601f0160208091040260200160405190810160405280929190818152602001828054611a0b90613357565b8015611a585780601f10611a2d57610100808354040283529160200191611a58565b820191906000526020600020905b815481529060010190602001808311611a3b57829003601f168201915b5050505050908060070160009054906101000a900460ff16905088565b6000600460008373ffffffffffffffffffffffffffffffffffffffff1673ffffffffffffffffffffffffffffffffffffffff168152602001908152602001600020549050919050565b60015481565b611acc612515565b73ffffffffffffffffffffffffffffffffffffffff16611aea61203e565b73ffffffffffffffffffffffffffffffffffffffff1614611b40576040517f08c379a0000000000000000000000000000000000000000000000000000000008152600401611b37906130bc565b60405180910390fd5b611b4a600061251d565b565b60046020528060005260406000206000915090505481565b6005602052806000526040600020600091509050806000018054611b8790613357565b80601f0160208091040260200160405190810160405280929190818152602001828054611bb390613357565b8015611c005780601f10611bd557610100808354040283529160200191611c00565b820191906000526020600020905b815481529060010190602001808311611be357829003601f168201915b505050505090806001018054611c1590613357565b80601f0160208091040260200160405190810160405280929190818152602001828054611c4190613357565b8015611c8e5780601f10611c6357610100808354040283529160200191611c8e565b820191906000526020600020905b815481529060010190602001808311611c7157829003601f168201915b505050505090806002018054611ca390613357565b80601f0160208091040260200160405190810160405280929190818152602001828054611ccf90613357565b8015611d1c5780601f10611cf157610100808354040283529160200191611d1c565b820191906000526020600020905b815481529060010190602001808311611cff57829003601f168201915b505050505090806003018054611d3190613357565b80601f0160208091040260200160405190810160405280929190818152602001828054611d5d90613357565b8015611daa5780601f10611d7f57610100808354040283529160200191611daa565b820191906000526020600020905b815481529060010190602001808311611d8d57829003601f168201915b505050505090806004018054611dbf90613357565b80601f0160208091040260200160405190810160405280929190818152602001828054611deb90613357565b8015611e385780601f10611e0d57610100808354040283529160200191611e38565b820191906000526020600020905b815481529060010190602001808311611e1b57829003601f168201915b5050505050905085565b600080600460003373ffffffffffffffffffffffffffffffffffffffff1673ffffffffffffffffffffffffffffffffffffffff1681526020019081526020016000205411611ec5576040517f08c379a0000000000000000000000000000000000000000000000000000000008152600401611ebc9061311c565b60405180910390fd5b6000600460003373ffffffffffffffffffffffffffffffffffffffff1673ffffffffffffffffffffffffffffffffffffffff168152602001908152602001600020549050600081118015611f1b57506001548111155b611f5a576040517f08c379a0000000000000000000000000000000000000000000000000000000008152600401611f519061307c565b60405180910390fd5b60005b83518163ffffffff161015611ffb578160046000868463ffffffff1681518110611f8a57611f8961348e565b5b602002602001015173ffffffffffffffffffffffffffffffffffffffff1673ffffffffffffffffffffffffffffffffffffffff1681526020019081526020016000208190555060036000815480929190611fe3906133ba565b91905055508080611ff390613403565b915050611f5d565b50807f8a0c6825467ff556effbebfe0914ed79ec1cf62663db6aa192c3a60227814ce58460405161202c9190612dc2565b60405180910390a26001915050919050565b60008060009054906101000a900473ffffffffffffffffffffffffffffffffffffffff16905090565b6000600460003373ffffffffffffffffffffffffffffffffffffffff1673ffffffffffffffffffffffffffffffffffffffff16815260200190815260200160002054905090565b60025481565b60035481565b6120c2612515565b73ffffffffffffffffffffffffffffffffffffffff166120e061203e565b73ffffffffffffffffffffffffffffffffffffffff1614612136576040517f08c379a000000000000000000000000000000000000000000000000000000000815260040161212d906130bc565b60405180910390fd5b600073ffffffffffffffffffffffffffffffffffffffff168173ffffffffffffffffffffffffffffffffffffffff1614156121a6576040517f08c379a000000000000000000000000000000000000000000000000000000000815260040161219d9061305c565b60405180910390fd5b6121af8161251d565b50565b60606000600560008481526020019081526020016000206040518060c00160405290816000820180546121e490613357565b80601f016020809104026020016040519081016040528092919081815260200182805461221090613357565b801561225d5780601f106122325761010080835404028352916020019161225d565b820191906000526020600020905b81548152906001019060200180831161224057829003601f168201915b5050505050815260200160018201805461227690613357565b80601f01602080910402602001604051908101604052809291908181526020018280546122a290613357565b80156122ef5780601f106122c4576101008083540402835291602001916122ef565b820191906000526020600020905b8154815290600101906020018083116122d257829003601f168201915b5050505050815260200160028201805461230890613357565b80601f016020809104026020016040519081016040528092919081815260200182805461233490613357565b80156123815780601f1061235657610100808354040283529160200191612381565b820191906000526020600020905b81548152906001019060200180831161236457829003601f168201915b5050505050815260200160038201805461239a90613357565b80601f01602080910402602001604051908101604052809291908181526020018280546123c690613357565b80156124135780601f106123e857610100808354040283529160200191612413565b820191906000526020600020905b8154815290600101906020018083116123f657829003601f168201915b5050505050815260200160048201805461242c90613357565b80601f016020809104026020016040519081016040528092919081815260200182805461245890613357565b80156124a55780601f1061247a576101008083540402835291602001916124a5565b820191906000526020600020905b81548152906001019060200180831161248857829003601f168201915b50505050508152602001600582018054806020026020016040519081016040528092919081815260200182805480156124fd57602002820191906000526020600020905b8154815260200190600101908083116124e9575b50505050508152505090508060a00151915050919050565b600033905090565b60008060009054906101000a900473ffffffffffffffffffffffffffffffffffffffff169050816000806101000a81548173ffffffffffffffffffffffffffffffffffffffff021916908373ffffffffffffffffffffffffffffffffffffffff1602179055508173ffffffffffffffffffffffffffffffffffffffff168173ffffffffffffffffffffffffffffffffffffffff167f8be0079c531659141344cd1fd0a4f28419497f9722a3daafe3b4186f6b6457e060405160405180910390a35050565b8280546125ed90613357565b90600052602060002090601f01602090048101928261260f5760008555612656565b82601f1061262857805160ff1916838001178555612656565b82800160010185558215612656579182015b8281111561265557825182559160200191906001019061263a565b5b50905061266391906126b4565b5090565b8280548282559060005260206000209081019282156126a3579160200282015b828111156126a2578251825591602001919060010190612687565b5b5090506126b091906126b4565b5090565b5b808211156126cd5760008160009055506001016126b5565b5090565b60006126e46126df8461317c565b613157565b90508083825260208201905082856020860282011115612707576127066134f1565b5b60005b85811015612737578161271d8882612783565b84526020840193506020830192505060018101905061270a565b5050509392505050565b600061275461274f846131a8565b613157565b9050828152602081018484840111156127705761276f6134f6565b5b61277b848285613315565b509392505050565b6000813590506127928161365b565b92915050565b600082601f8301126127ad576127ac6134ec565b5b81356127bd8482602086016126d1565b91505092915050565b6000813590506127d581613672565b92915050565b600082601f8301126127f0576127ef6134ec565b5b8135612800848260208601612741565b91505092915050565b60008135905061281881613689565b92915050565b60006020828403121561283457612833613500565b5b600061284284828501612783565b91505092915050565b60006020828403121561286157612860613500565b5b600082013567ffffffffffffffff81111561287f5761287e6134fb565b5b61288b84828501612798565b91505092915050565b600080600080600060a086880312156128b0576128af613500565b5b600086013567ffffffffffffffff8111156128ce576128cd6134fb565b5b6128da888289016127db565b955050602086013567ffffffffffffffff8111156128fb576128fa6134fb565b5b612907888289016127db565b945050604086013567ffffffffffffffff811115612928576129276134fb565b5b612934888289016127db565b935050606086013567ffffffffffffffff811115612955576129546134fb565b5b612961888289016127db565b925050608086013567ffffffffffffffff811115612982576129816134fb565b5b61298e888289016127db565b9150509295509295909350565b600080600080600080600080610100898b0312156129bc576129bb613500565b5b600089013567ffffffffffffffff8111156129da576129d96134fb565b5b6129e68b828c016127db565b985050602089013567ffffffffffffffff811115612a0757612a066134fb565b5b612a138b828c016127db565b975050604089013567ffffffffffffffff811115612a3457612a336134fb565b5b612a408b828c016127db565b965050606089013567ffffffffffffffff811115612a6157612a606134fb565b5b612a6d8b828c016127db565b955050608089013567ffffffffffffffff811115612a8e57612a8d6134fb565b5b612a9a8b828c016127db565b94505060a089013567ffffffffffffffff811115612abb57612aba6134fb565b5b612ac78b828c016127db565b93505060c089013567ffffffffffffffff811115612ae857612ae76134fb565b5b612af48b828c016127db565b92505060e0612b058b828c016127c6565b9150509295985092959890939650565b600060208284031215612b2b57612b2a613500565b5b6000612b3984828501612809565b91505092915050565b6000612b4e8383612b72565b60208301905092915050565b6000612b668383612d89565b60208301905092915050565b612b7b816132bd565b82525050565b612b8a816132bd565b82525050565b6000612b9b826131f9565b612ba58185613234565b9350612bb0836131d9565b8060005b83811015612be1578151612bc88882612b42565b9750612bd38361321a565b925050600181019050612bb4565b5085935050505092915050565b6000612bf982613204565b612c038185613245565b9350612c0e836131e9565b8060005b83811015612c3f578151612c268882612b5a565b9750612c3183613227565b925050600181019050612c12565b5085935050505092915050565b612c55816132cf565b82525050565b6000612c668261320f565b612c708185613256565b9350612c80818560208601613324565b612c8981613505565b840191505092915050565b6000612ca1602683613256565b9150612cac82613516565b604082019050919050565b6000612cc4601583613256565b9150612ccf82613565565b602082019050919050565b6000612ce7601783613256565b9150612cf28261358e565b602082019050919050565b6000612d0a602083613256565b9150612d15826135b7565b602082019050919050565b6000612d2d601883613256565b9150612d38826135e0565b602082019050919050565b6000612d50601583613256565b9150612d5b82613609565b602082019050919050565b6000612d73601783613256565b9150612d7e82613632565b602082019050919050565b612d92816132fb565b82525050565b612da1816132fb565b82525050565b6000602082019050612dbc6000830184612b81565b92915050565b60006020820190508181036000830152612ddc8184612b90565b905092915050565b60006020820190508181036000830152612dfe8184612bee565b905092915050565b6000602082019050612e1b6000830184612c4c565b92915050565b600060a0820190508181036000830152612e3b8188612c5b565b90508181036020830152612e4f8187612c5b565b90508181036040830152612e638186612c5b565b90508181036060830152612e778185612c5b565b90508181036080830152612e8b8184612c5b565b90509695505050505050565b600060c0820190508181036000830152612eb18189612c5b565b90508181036020830152612ec58188612c5b565b90508181036040830152612ed98187612c5b565b90508181036060830152612eed8186612c5b565b90508181036080830152612f018185612c5b565b905081810360a0830152612f158184612bee565b9050979650505050505050565b600060c0820190508181036000830152612f3c8189612c5b565b90508181036020830152612f508188612c5b565b90508181036040830152612f648187612c5b565b90508181036060830152612f788186612c5b565b90508181036080830152612f8c8185612c5b565b905081810360a0830152612fa08184612c5b565b9050979650505050505050565b6000610100820190508181036000830152612fc8818b612c5b565b90508181036020830152612fdc818a612c5b565b90508181036040830152612ff08189612c5b565b905081810360608301526130048188612c5b565b905081810360808301526130188187612c5b565b905081810360a083015261302c8186612c5b565b905081810360c08301526130408185612c5b565b905061304f60e0830184612c4c565b9998505050505050505050565b6000602082019050818103600083015261307581612c94565b9050919050565b6000602082019050818103600083015261309581612cb7565b9050919050565b600060208201905081810360008301526130b581612cda565b9050919050565b600060208201905081810360008301526130d581612cfd565b9050919050565b600060208201905081810360008301526130f581612d20565b9050919050565b6000602082019050818103600083015261311581612d43565b9050919050565b6000602082019050818103600083015261313581612d66565b9050919050565b60006020820190506131516000830184612d98565b92915050565b6000613161613172565b905061316d8282613389565b919050565b6000604051905090565b600067ffffffffffffffff821115613197576131966134bd565b5b602082029050602081019050919050565b600067ffffffffffffffff8211156131c3576131c26134bd565b5b6131cc82613505565b9050602081019050919050565b6000819050602082019050919050565b6000819050602082019050919050565b600081519050919050565b600081519050919050565b600081519050919050565b6000602082019050919050565b6000602082019050919050565b600082825260208201905092915050565b600082825260208201905092915050565b600082825260208201905092915050565b6000613272826132fb565b915061327d836132fb565b9250827fffffffffffffffffffffffffffffffffffffffffffffffffffffffffffffffff038211156132b2576132b1613430565b5b828201905092915050565b60006132c8826132db565b9050919050565b60008115159050919050565b600073ffffffffffffffffffffffffffffffffffffffff82169050919050565b6000819050919050565b600063ffffffff82169050919050565b82818337600083830152505050565b60005b83811015613342578082015181840152602081019050613327565b83811115613351576000848401525b50505050565b6000600282049050600182168061336f57607f821691505b602082108114156133835761338261345f565b5b50919050565b61339282613505565b810181811067ffffffffffffffff821117156133b1576133b06134bd565b5b80604052505050565b60006133c5826132fb565b91507fffffffffffffffffffffffffffffffffffffffffffffffffffffffffffffffff8214156133f8576133f7613430565b5b600182019050919050565b600061340e82613305565b915063ffffffff82141561342557613424613430565b5b600182019050919050565b7f4e487b7100000000000000000000000000000000000000000000000000000000600052601160045260246000fd5b7f4e487b7100000000000000000000000000000000000000000000000000000000600052602260045260246000fd5b7f4e487b7100000000000000000000000000000000000000000000000000000000600052603260045260246000fd5b7f4e487b7100000000000000000000000000000000000000000000000000000000600052604160045260246000fd5b600080fd5b600080fd5b600080fd5b600080fd5b600080fd5b6000601f19601f8301169050919050565b7f4f776e61626c653a206e6577206f776e657220697320746865207a65726f206160008201527f6464726573730000000000000000000000000000000000000000000000000000602082015250565b7f4e6f7420612076616c6964204176617461722049440000000000000000000000600082015250565b7f4d6574614c696e6b20646f6573206e6f74206578697374000000000000000000600082015250565b7f4f776e61626c653a2063616c6c6572206973206e6f7420746865206f776e6572600082015250565b7f596f752061726520616c72656164792061206d656d6265720000000000000000600082015250565b7f41766174617220646f6573206e6f742065786973740000000000000000000000600082015250565b7f596f75206861766520746f2062652061206d656d626572000000000000000000600082015250565b613664816132bd565b811461366f57600080fd5b50565b61367b816132cf565b811461368657600080fd5b50565b613692816132fb565b811461369d57600080fd5b5056fea2646970667358221220d74788c128f02feadc55c9a7588212e005a2c4953b7b4f516f3b3b12a701ed3764736f6c63430008070033",
  "linkReferences": {},
  "deployedLinkReferences": {}
}