{
  "_format": "hh-sol-artifact-1",
  "contractName": "MetaLinks",
  "sourceName": "contracts/MetaLinks.sol",
  "abi": [
    {
      "inputs": [],
      "stateMutability": "nonpayable",
      "type": "constructor"
    },
    {
      "anonymous": false,
      "inputs": [
        {
          "indexed": true,
          "internalType": "uint256",
          "name": "avatarID",
          "type": "uint256"
        },
        {
          "indexed": false,
          "internalType": "address[]",
          "name": "newAddresses",
          "type": "address[]"
        }
      ],
      "name": "AvatarAddressesAdded",
      "type": "event"
    },
    {
      "anonymous": false,
      "inputs": [
        {
          "indexed": true,
          "internalType": "uint256",
          "name": "avatarID",
          "type": "uint256"
        },
        {
          "indexed": false,
          "internalType": "string",
          "name": "name",
          "type": "string"
        },
        {
          "indexed": false,
          "internalType": "string",
          "name": "aka",
          "type": "string"
        },
        {
          "indexed": false,
          "internalType": "string",
          "name": "bio",
          "type": "string"
        },
        {
          "indexed": false,
          "internalType": "string",
          "name": "avatar",
          "type": "string"
        },
        {
          "indexed": false,
          "internalType": "string",
          "name": "bgAvatar",
          "type": "string"
        }
      ],
      "name": "AvatarCreated",
      "type": "event"
    },
    {
      "anonymous": false,
      "inputs": [
        {
          "indexed": true,
          "internalType": "uint256",
          "name": "avatarID",
          "type": "uint256"
        },
        {
          "indexed": true,
          "internalType": "uint256",
          "name": "newMetaLinkID",
          "type": "uint256"
        },
        {
          "indexed": false,
          "internalType": "string",
          "name": "name",
          "type": "string"
        },
        {
          "indexed": false,
          "internalType": "string",
          "name": "aka",
          "type": "string"
        },
        {
          "indexed": false,
          "internalType": "string",
          "name": "bio",
          "type": "string"
        },
        {
          "indexed": false,
          "internalType": "string",
          "name": "universe",
          "type": "string"
        },
        {
          "indexed": false,
          "internalType": "string",
          "name": "link",
          "type": "string"
        },
        {
          "indexed": false,
          "internalType": "string",
          "name": "avatar",
          "type": "string"
        },
        {
          "indexed": false,
          "internalType": "string",
          "name": "bgAvatar",
          "type": "string"
        },
        {
          "indexed": false,
          "internalType": "bool",
          "name": "active",
          "type": "bool"
        }
      ],
      "name": "MetaLinkAdded",
      "type": "event"
    },
    {
      "anonymous": false,
      "inputs": [
        {
          "indexed": true,
          "internalType": "address",
          "name": "previousOwner",
          "type": "address"
        },
        {
          "indexed": true,
          "internalType": "address",
          "name": "newOwner",
          "type": "address"
        }
      ],
      "name": "OwnershipTransferred",
      "type": "event"
    },
    {
      "inputs": [
        {
          "internalType": "address[]",
          "name": "_addresses",
          "type": "address[]"
        }
      ],
      "name": "addAvatarAddress",
      "outputs": [
        {
          "internalType": "bool",
          "name": "",
          "type": "bool"
        }
      ],
      "stateMutability": "nonpayable",
      "type": "function"
    },
    {
      "inputs": [
        {
          "internalType": "string",
          "name": "_name",
          "type": "string"
        },
        {
          "internalType": "string",
          "name": "_aka",
          "type": "string"
        },
        {
          "internalType": "string",
          "name": "_bio",
          "type": "string"
        },
        {
          "internalType": "string",
          "name": "_universe",
          "type": "string"
        },
        {
          "internalType": "string",
          "name": "_avatar",
          "type": "string"
        },
        {
          "internalType": "string",
          "name": "_bg_avatar",
          "type": "string"
        },
        {
          "internalType": "string",
          "name": "_link",
          "type": "string"
        },
        {
          "internalType": "bool",
          "name": "_active",
          "type": "bool"
        }
      ],
      "name": "addAvatarMetalink",
      "outputs": [
        {
          "internalType": "bool",
          "name": "",
          "type": "bool"
        }
      ],
      "stateMutability": "nonpayable",
      "type": "function"
    },
    {
      "inputs": [
        {
          "internalType": "address",
          "name": "",
          "type": "address"
        }
      ],
      "name": "addressesToMID",
      "outputs": [
        {
          "internalType": "uint256",
          "name": "",
          "type": "uint256"
        }
      ],
      "stateMutability": "view",
      "type": "function"
    },
    {
      "inputs": [
        {
          "internalType": "string",
          "name": "_name",
          "type": "string"
        },
        {
          "internalType": "string",
          "name": "_aka",
          "type": "string"
        },
        {
          "internalType": "string",
          "name": "_bio",
          "type": "string"
        },
        {
          "internalType": "string",
          "name": "_avatar",
          "type": "string"
        },
        {
          "internalType": "string",
          "name": "_bg_avatar",
          "type": "string"
        }
      ],
      "name": "createAvatar",
      "outputs": [
        {
          "internalType": "uint256",
          "name": "",
          "type": "uint256"
        }
      ],
      "stateMutability": "nonpayable",
      "type": "function"
    },
    {
      "inputs": [
        {
          "internalType": "address",
          "name": "_address",
          "type": "address"
        }
      ],
      "name": "getAvatarByAddress",
      "outputs": [
        {
          "internalType": "string",
          "name": "",
          "type": "string"
        },
        {
          "internalType": "string",
          "name": "",
          "type": "string"
        },
        {
          "internalType": "string",
          "name": "",
          "type": "string"
        },
        {
          "internalType": "string",
          "name": "",
          "type": "string"
        },
        {
          "internalType": "string",
          "name": "",
          "type": "string"
        },
        {
          "internalType": "uint256[]",
          "name": "links",
          "type": "uint256[]"
        }
      ],
      "stateMutability": "view",
      "type": "function"
    },
    {
      "inputs": [
        {
          "internalType": "uint256",
          "name": "_id",
          "type": "uint256"
        }
      ],
      "name": "getAvatarById",
      "outputs": [
        {
          "internalType": "string",
          "name": "",
          "type": "string"
        },
        {
          "internalType": "string",
          "name": "",
          "type": "string"
        },
        {
          "internalType": "string",
          "name": "",
          "type": "string"
        },
        {
          "internalType": "string",
          "name": "",
          "type": "string"
        },
        {
          "internalType": "string",
          "name": "",
          "type": "string"
        },
        {
          "internalType": "uint256[]",
          "name": "links",
          "type": "uint256[]"
        }
      ],
      "stateMutability": "view",
      "type": "function"
    },
    {
      "inputs": [
        {
          "internalType": "address",
          "name": "_address",
          "type": "address"
        }
      ],
      "name": "getAvatarID",
      "outputs": [
        {
          "internalType": "uint256",
          "name": "",
          "type": "uint256"
        }
      ],
      "stateMutability": "view",
      "type": "function"
    },
    {
      "inputs": [
        {
          "internalType": "uint256",
          "name": "_id",
          "type": "uint256"
        }
      ],
      "name": "getAvatarMetaLinkIDs",
      "outputs": [
        {
          "internalType": "uint256[]",
          "name": "links",
          "type": "uint256[]"
        }
      ],
      "stateMutability": "view",
      "type": "function"
    },
    {
      "inputs": [
        {
          "internalType": "uint256",
          "name": "_id",
          "type": "uint256"
        }
      ],
      "name": "getMetaLink",
      "outputs": [
        {
          "internalType": "string",
          "name": "",
          "type": "string"
        },
        {
          "internalType": "string",
          "name": "",
          "type": "string"
        },
        {
          "internalType": "string",
          "name": "",
          "type": "string"
        },
        {
          "internalType": "string",
          "name": "",
          "type": "string"
        },
        {
          "internalType": "string",
          "name": "",
          "type": "string"
        },
        {
          "internalType": "string",
          "name": "",
          "type": "string"
        }
      ],
      "stateMutability": "view",
      "type": "function"
    },
    {
      "inputs": [],
      "name": "getMyAvatarID",
      "outputs": [
        {
          "internalType": "uint256",
          "name": "",
          "type": "uint256"
        }
      ],
      "stateMutability": "view",
      "type": "function"
    },
    {
      "inputs": [
        {
          "internalType": "address",
          "name": "_address",
          "type": "address"
        }
      ],
      "name": "isAddressUsed",
      "outputs": [
        {
          "internalType": "bool",
          "name": "",
          "type": "bool"
        }
      ],
      "stateMutability": "view",
      "type": "function"
    },
    {
      "inputs": [
        {
          "internalType": "uint256",
          "name": "",
          "type": "uint256"
        }
      ],
      "name": "midsToAvatars",
      "outputs": [
        {
          "internalType": "string",
          "name": "name",
          "type": "string"
        },
        {
          "internalType": "string",
          "name": "aka",
          "type": "string"
        },
        {
          "internalType": "string",
          "name": "bio",
          "type": "string"
        },
        {
          "internalType": "string",
          "name": "avatar",
          "type": "string"
        },
        {
          "internalType": "string",
          "name": "bg_avatar",
          "type": "string"
        }
      ],
      "stateMutability": "view",
      "type": "function"
    },
    {
      "inputs": [
        {
          "internalType": "uint256",
          "name": "",
          "type": "uint256"
        }
      ],
      "name": "midsToMetaLinks",
      "outputs": [
        {
          "internalType": "string",
          "name": "name",
          "type": "string"
        },
        {
          "internalType": "string",
          "name": "aka",
          "type": "string"
        },
        {
          "internalType": "string",
          "name": "universe",
          "type": "string"
        },
        {
          "internalType": "string",
          "name": "link",
          "type": "string"
        },
        {
          "internalType": "string",
          "name": "bio",
          "type": "string"
        },
        {
          "internalType": "string",
          "name": "avatar",
          "type": "string"
        },
        {
          "internalType": "string",
          "name": "bg_avatar",
          "type": "string"
        },
        {
          "internalType": "bool",
          "name": "active",
          "type": "bool"
        }
      ],
      "stateMutability": "view",
      "type": "function"
    },
    {
      "inputs": [],
      "name": "owner",
      "outputs": [
        {
          "internalType": "address",
          "name": "",
          "type": "address"
        }
      ],
      "stateMutability": "view",
      "type": "function"
    },
    {
      "inputs": [],
      "name": "renounceOwnership",
      "outputs": [],
      "stateMutability": "nonpayable",
      "type": "function"
    },
    {
      "inputs": [],
      "name": "totalAddresses",
      "outputs": [
        {
          "internalType": "uint256",
          "name": "",
          "type": "uint256"
        }
      ],
      "stateMutability": "view",
      "type": "function"
    },
    {
      "inputs": [],
      "name": "totalAvatars",
      "outputs": [
        {
          "internalType": "uint256",
          "name": "",
          "type": "uint256"
        }
      ],
      "stateMutability": "view",
      "type": "function"
    },
    {
      "inputs": [],
      "name": "totalMetaLinks",
      "outputs": [
        {
          "internalType": "uint256",
          "name": "",
          "type": "uint256"
        }
      ],
      "stateMutability": "view",
      "type": "function"
    },
    {
      "inputs": [
        {
          "internalType": "address",
          "name": "newOwner",
          "type": "address"
        }
      ],
      "name": "transferOwnership",
      "outputs": [],
      "stateMutability": "nonpayable",
      "type": "function"
    }
  ],
  "bytecode": "0x60806040523480156200001157600080fd5b5062000032620000266200003860201b60201c565b6200004060201b60201c565b62000104565b600033905090565b60008060009054906101000a900473ffffffffffffffffffffffffffffffffffffffff169050816000806101000a81548173ffffffffffffffffffffffffffffffffffffffff021916908373ffffffffffffffffffffffffffffffffffffffff1602179055508173ffffffffffffffffffffffffffffffffffffffff168173ffffffffffffffffffffffffffffffffffffffff167f8be0079c531659141344cd1fd0a4f28419497f9722a3daafe3b4186f6b6457e060405160405180910390a35050565b6138f380620001146000396000f3fe608060405234801561001057600080fd5b50600436106101215760003560e01c8063787ee815116100ad578063b48375e411610071578063b48375e414610396578063baea526f146103b4578063cfad5277146103d2578063f2fde38b146103f0578063fc94b4651461040c57610121565b8063787ee815146102b45780637a2b8712146102e45780637c834e301461031857806386e7e492146103485780638da5cb5b1461037857610121565b806352cfbb43116100f457806352cfbb43146101f5578063569fdae71461022c5780635a4f0b2f1461025c5780636ac156db1461028c578063715018a6146102aa57610121565b8063013808aa14610126578063106f4ad814610156578063215cc0311461018b5780634347fec8146101c0575b600080fd5b610140600480360381019061013b9190612ab1565b61043c565b60405161014d9190613359565b60405180910390f35b610170600480360381019061016b9190612d32565b6106ba565b6040516101829695949392919061313f565b60405180910390f35b6101a560048036038101906101a09190612a3b565b610b84565b6040516101b7969594939291906130b4565b60405180910390f35b6101da60048036038101906101d59190612d32565b610fab565b6040516101ec969594939291906130b4565b60405180910390f35b61020f600480360381019061020a9190612d32565b61138d565b6040516102239897969594939291906131ca565b60405180910390f35b61024660048036038101906102419190612a3b565b61179a565b6040516102539190613023565b60405180910390f35b61027660048036038101906102719190612a3b565b6117e5565b6040516102839190613359565b60405180910390f35b61029461182e565b6040516102a19190613359565b60405180910390f35b6102b2611834565b005b6102ce60048036038101906102c99190612a3b565b6118bc565b6040516102db9190613359565b60405180910390f35b6102fe60048036038101906102f99190612d32565b6118d4565b60405161030f95949392919061303e565b60405180910390f35b610332600480360381019061032d9190612bb8565b611bb2565b60405161033f9190613023565b60405180910390f35b610362600480360381019061035d9190612a68565b611edc565b60405161036f9190613023565b60405180910390f35b61038061225b565b60405161038d9190612fc4565b60405180910390f35b61039e612284565b6040516103ab9190613359565b60405180910390f35b6103bc6122cb565b6040516103c99190613359565b60405180910390f35b6103da6122d1565b6040516103e79190613359565b60405180910390f35b61040a60048036038101906104059190612a3b565b6122d7565b005b61042660048036038101906104219190612d32565b6123cf565b6040516104339190613001565b60405180910390f35b600080600460003373ffffffffffffffffffffffffffffffffffffffff1673ffffffffffffffffffffffffffffffffffffffff16815260200190815260200160002054146104bf576040517f08c379a00000000000000000000000000000000000000000000000000000000081526004016104b6906132f9565b60405180910390fd5b6000600180546104cf9190613484565b905080600460003373ffffffffffffffffffffffffffffffffffffffff1673ffffffffffffffffffffffffffffffffffffffff1681526020019081526020016000208190555060006040518060c00160405280898152602001888152602001878152602001868152602001858152602001600067ffffffffffffffff81111561055b5761055a6136da565b5b6040519080825280602002602001820160405280156105895781602001602082028036833780820191505090505b508152509050806005600084815260200190815260200160002060008201518160000190805190602001906105bf9291906127fe565b5060208201518160010190805190602001906105dc9291906127fe565b5060408201518160020190805190602001906105f99291906127fe565b5060608201518160030190805190602001906106169291906127fe565b5060808201518160040190805190602001906106339291906127fe565b5060a0820151816005019080519060200190610650929190612884565b5090505060016000815480929190610667906135d7565b9190505550817f33c79442820bff70e679fb367a83f1207627b18198401ecaf8700a48ca9b9c6289898989896040516106a495949392919061303e565b60405180910390a2819250505095945050505050565b6060806060806060806000871180156106d557506002548711155b610714576040517f08c379a000000000000000000000000000000000000000000000000000000000815260040161070b906132b9565b60405180910390fd5b6000600660008981526020019081526020016000206040518061010001604052908160008201805461074590613574565b80601f016020809104026020016040519081016040528092919081815260200182805461077190613574565b80156107be5780601f10610793576101008083540402835291602001916107be565b820191906000526020600020905b8154815290600101906020018083116107a157829003601f168201915b505050505081526020016001820180546107d790613574565b80601f016020809104026020016040519081016040528092919081815260200182805461080390613574565b80156108505780601f1061082557610100808354040283529160200191610850565b820191906000526020600020905b81548152906001019060200180831161083357829003601f168201915b5050505050815260200160028201805461086990613574565b80601f016020809104026020016040519081016040528092919081815260200182805461089590613574565b80156108e25780601f106108b7576101008083540402835291602001916108e2565b820191906000526020600020905b8154815290600101906020018083116108c557829003601f168201915b505050505081526020016003820180546108fb90613574565b80601f016020809104026020016040519081016040528092919081815260200182805461092790613574565b80156109745780601f1061094957610100808354040283529160200191610974565b820191906000526020600020905b81548152906001019060200180831161095757829003601f168201915b5050505050815260200160048201805461098d90613574565b80601f01602080910402602001604051908101604052809291908181526020018280546109b990613574565b8015610a065780601f106109db57610100808354040283529160200191610a06565b820191906000526020600020905b8154815290600101906020018083116109e957829003601f168201915b50505050508152602001600582018054610a1f90613574565b80601f0160208091040260200160405190810160405280929190818152602001828054610a4b90613574565b8015610a985780601f10610a6d57610100808354040283529160200191610a98565b820191906000526020600020905b815481529060010190602001808311610a7b57829003601f168201915b50505050508152602001600682018054610ab190613574565b80601f0160208091040260200160405190810160405280929190818152602001828054610add90613574565b8015610b2a5780601f10610aff57610100808354040283529160200191610b2a565b820191906000526020600020905b815481529060010190602001808311610b0d57829003601f168201915b505050505081526020016007820160009054906101000a900460ff16151515158152505090508060000151816020015182608001518360a001518460c0015185606001519650965096509650965096505091939550919395565b6060806060806060806000600460008973ffffffffffffffffffffffffffffffffffffffff1673ffffffffffffffffffffffffffffffffffffffff168152602001908152602001600020549050600081118015610be357506001548111155b610c22576040517f08c379a0000000000000000000000000000000000000000000000000000000008152600401610c1990613319565b60405180910390fd5b6000600560008381526020019081526020016000206040518060c0016040529081600082018054610c5290613574565b80601f0160208091040260200160405190810160405280929190818152602001828054610c7e90613574565b8015610ccb5780601f10610ca057610100808354040283529160200191610ccb565b820191906000526020600020905b815481529060010190602001808311610cae57829003601f168201915b50505050508152602001600182018054610ce490613574565b80601f0160208091040260200160405190810160405280929190818152602001828054610d1090613574565b8015610d5d5780601f10610d3257610100808354040283529160200191610d5d565b820191906000526020600020905b815481529060010190602001808311610d4057829003601f168201915b50505050508152602001600282018054610d7690613574565b80601f0160208091040260200160405190810160405280929190818152602001828054610da290613574565b8015610def5780601f10610dc457610100808354040283529160200191610def565b820191906000526020600020905b815481529060010190602001808311610dd257829003601f168201915b50505050508152602001600382018054610e0890613574565b80601f0160208091040260200160405190810160405280929190818152602001828054610e3490613574565b8015610e815780601f10610e5657610100808354040283529160200191610e81565b820191906000526020600020905b815481529060010190602001808311610e6457829003601f168201915b50505050508152602001600482018054610e9a90613574565b80601f0160208091040260200160405190810160405280929190818152602001828054610ec690613574565b8015610f135780601f10610ee857610100808354040283529160200191610f13565b820191906000526020600020905b815481529060010190602001808311610ef657829003601f168201915b5050505050815260200160058201805480602002602001604051908101604052809291908181526020018280548015610f6b57602002820191906000526020600020905b815481526020019060010190808311610f57575b5050505050815250509050806000015181602001518260400151836060015184608001518560a00151975097509750975097509750505091939550919395565b606080606080606080600087118015610fc657506001548711155b611005576040517f08c379a0000000000000000000000000000000000000000000000000000000008152600401610ffc90613319565b60405180910390fd5b6000600560008981526020019081526020016000206040518060c001604052908160008201805461103590613574565b80601f016020809104026020016040519081016040528092919081815260200182805461106190613574565b80156110ae5780601f10611083576101008083540402835291602001916110ae565b820191906000526020600020905b81548152906001019060200180831161109157829003601f168201915b505050505081526020016001820180546110c790613574565b80601f01602080910402602001604051908101604052809291908181526020018280546110f390613574565b80156111405780601f1061111557610100808354040283529160200191611140565b820191906000526020600020905b81548152906001019060200180831161112357829003601f168201915b5050505050815260200160028201805461115990613574565b80601f016020809104026020016040519081016040528092919081815260200182805461118590613574565b80156111d25780601f106111a7576101008083540402835291602001916111d2565b820191906000526020600020905b8154815290600101906020018083116111b557829003601f168201915b505050505081526020016003820180546111eb90613574565b80601f016020809104026020016040519081016040528092919081815260200182805461121790613574565b80156112645780601f1061123957610100808354040283529160200191611264565b820191906000526020600020905b81548152906001019060200180831161124757829003601f168201915b5050505050815260200160048201805461127d90613574565b80601f01602080910402602001604051908101604052809291908181526020018280546112a990613574565b80156112f65780601f106112cb576101008083540402835291602001916112f6565b820191906000526020600020905b8154815290600101906020018083116112d957829003601f168201915b505050505081526020016005820180548060200260200160405190810160405280929190818152602001828054801561134e57602002820191906000526020600020905b81548152602001906001019080831161133a575b5050505050815250509050806000015181602001518260400151836060015184608001518560a001519650965096509650965096505091939550919395565b60066020528060005260406000206000915090508060000180546113b090613574565b80601f01602080910402602001604051908101604052809291908181526020018280546113dc90613574565b80156114295780601f106113fe57610100808354040283529160200191611429565b820191906000526020600020905b81548152906001019060200180831161140c57829003601f168201915b50505050509080600101805461143e90613574565b80601f016020809104026020016040519081016040528092919081815260200182805461146a90613574565b80156114b75780601f1061148c576101008083540402835291602001916114b7565b820191906000526020600020905b81548152906001019060200180831161149a57829003601f168201915b5050505050908060020180546114cc90613574565b80601f01602080910402602001604051908101604052809291908181526020018280546114f890613574565b80156115455780601f1061151a57610100808354040283529160200191611545565b820191906000526020600020905b81548152906001019060200180831161152857829003601f168201915b50505050509080600301805461155a90613574565b80601f016020809104026020016040519081016040528092919081815260200182805461158690613574565b80156115d35780601f106115a8576101008083540402835291602001916115d3565b820191906000526020600020905b8154815290600101906020018083116115b657829003601f168201915b5050505050908060040180546115e890613574565b80601f016020809104026020016040519081016040528092919081815260200182805461161490613574565b80156116615780601f1061163657610100808354040283529160200191611661565b820191906000526020600020905b81548152906001019060200180831161164457829003601f168201915b50505050509080600501805461167690613574565b80601f01602080910402602001604051908101604052809291908181526020018280546116a290613574565b80156116ef5780601f106116c4576101008083540402835291602001916116ef565b820191906000526020600020905b8154815290600101906020018083116116d257829003601f168201915b50505050509080600601805461170490613574565b80601f016020809104026020016040519081016040528092919081815260200182805461173090613574565b801561177d5780601f106117525761010080835404028352916020019161177d565b820191906000526020600020905b81548152906001019060200180831161176057829003601f168201915b5050505050908060070160009054906101000a900460ff16905088565b600080600460008473ffffffffffffffffffffffffffffffffffffffff1673ffffffffffffffffffffffffffffffffffffffff16815260200190815260200160002054119050919050565b6000600460008373ffffffffffffffffffffffffffffffffffffffff1673ffffffffffffffffffffffffffffffffffffffff168152602001908152602001600020549050919050565b60015481565b61183c612732565b73ffffffffffffffffffffffffffffffffffffffff1661185a61225b565b73ffffffffffffffffffffffffffffffffffffffff16146118b0576040517f08c379a00000000000000000000000000000000000000000000000000000000081526004016118a7906132d9565b60405180910390fd5b6118ba600061273a565b565b60046020528060005260406000206000915090505481565b60056020528060005260406000206000915090508060000180546118f790613574565b80601f016020809104026020016040519081016040528092919081815260200182805461192390613574565b80156119705780601f1061194557610100808354040283529160200191611970565b820191906000526020600020905b81548152906001019060200180831161195357829003601f168201915b50505050509080600101805461198590613574565b80601f01602080910402602001604051908101604052809291908181526020018280546119b190613574565b80156119fe5780601f106119d3576101008083540402835291602001916119fe565b820191906000526020600020905b8154815290600101906020018083116119e157829003601f168201915b505050505090806002018054611a1390613574565b80601f0160208091040260200160405190810160405280929190818152602001828054611a3f90613574565b8015611a8c5780601f10611a6157610100808354040283529160200191611a8c565b820191906000526020600020905b815481529060010190602001808311611a6f57829003601f168201915b505050505090806003018054611aa190613574565b80601f0160208091040260200160405190810160405280929190818152602001828054611acd90613574565b8015611b1a5780601f10611aef57610100808354040283529160200191611b1a565b820191906000526020600020905b815481529060010190602001808311611afd57829003601f168201915b505050505090806004018054611b2f90613574565b80601f0160208091040260200160405190810160405280929190818152602001828054611b5b90613574565b8015611ba85780601f10611b7d57610100808354040283529160200191611ba8565b820191906000526020600020905b815481529060010190602001808311611b8b57829003601f168201915b5050505050905085565b600080600460003373ffffffffffffffffffffffffffffffffffffffff1673ffffffffffffffffffffffffffffffffffffffff16815260200190815260200160002054118015611c435750600154600460003373ffffffffffffffffffffffffffffffffffffffff1673ffffffffffffffffffffffffffffffffffffffff1681526020019081526020016000205411155b611c82576040517f08c379a0000000000000000000000000000000000000000000000000000000008152600401611c7990613339565b60405180910390fd5b6000600460003373ffffffffffffffffffffffffffffffffffffffff1673ffffffffffffffffffffffffffffffffffffffff168152602001908152602001600020549050600060056000838152602001908152602001600020905060006001600254611cee9190613484565b905060006040518061010001604052808e81526020018d81526020018b81526020018881526020018c81526020018a8152602001898152602001871515815250905080600660008481526020019081526020016000206000820151816000019080519060200190611d609291906127fe565b506020820151816001019080519060200190611d7d9291906127fe565b506040820151816002019080519060200190611d9a9291906127fe565b506060820151816003019080519060200190611db79291906127fe565b506080820151816004019080519060200190611dd49291906127fe565b5060a0820151816005019080519060200190611df19291906127fe565b5060c0820151816006019080519060200190611e0e9291906127fe565b5060e08201518160070160006101000a81548160ff0219169083151502179055509050508260050182908060018154018082558091505060019003906000526020600020016000909190919091505560026000815480929190611e70906135d7565b919050555081847f01a01fbca88702fbfa390f3ae96229cf64dbfab947835c5446581c0da3c5bd5c8f8f8f8f8d8860a001518960c001518a60e00151604051611ec09897969594939291906131ca565b60405180910390a3600194505050505098975050505050505050565b600080600460003373ffffffffffffffffffffffffffffffffffffffff1673ffffffffffffffffffffffffffffffffffffffff16815260200190815260200160002054118015611f6d5750600154600460003373ffffffffffffffffffffffffffffffffffffffff1673ffffffffffffffffffffffffffffffffffffffff1681526020019081526020016000205411155b611fac576040517f08c379a0000000000000000000000000000000000000000000000000000000008152600401611fa390613339565b60405180910390fd5b6000600460003373ffffffffffffffffffffffffffffffffffffffff1673ffffffffffffffffffffffffffffffffffffffff16815260200190815260200160002054905060008111801561200257506001548111155b612041576040517f08c379a000000000000000000000000000000000000000000000000000000000815260040161203890613299565b60405180910390fd5b6000835167ffffffffffffffff81111561205e5761205d6136da565b5b60405190808252806020026020018201604052801561208c5781602001602082028036833780820191505090505b50905060005b84518163ffffffff16101561220c5760008060046000888563ffffffff16815181106120c1576120c06136ab565b5b602002602001015173ffffffffffffffffffffffffffffffffffffffff1673ffffffffffffffffffffffffffffffffffffffff16815260200190815260200160002054119050806121f8578360046000888563ffffffff168151811061212a576121296136ab565b5b602002602001015173ffffffffffffffffffffffffffffffffffffffff1673ffffffffffffffffffffffffffffffffffffffff16815260200190815260200160002081905550858263ffffffff1681518110612189576121886136ab565b5b6020026020010151838451815181106121a5576121a46136ab565b5b602002602001019073ffffffffffffffffffffffffffffffffffffffff16908173ffffffffffffffffffffffffffffffffffffffff1681525050600360008154809291906121f2906135d7565b91905055505b50808061220490613620565b915050612092565b5060008151111561225057817f8a0c6825467ff556effbebfe0914ed79ec1cf62663db6aa192c3a60227814ce5826040516122479190612fdf565b60405180910390a25b600192505050919050565b60008060009054906101000a900473ffffffffffffffffffffffffffffffffffffffff16905090565b6000600460003373ffffffffffffffffffffffffffffffffffffffff1673ffffffffffffffffffffffffffffffffffffffff16815260200190815260200160002054905090565b60025481565b60035481565b6122df612732565b73ffffffffffffffffffffffffffffffffffffffff166122fd61225b565b73ffffffffffffffffffffffffffffffffffffffff1614612353576040517f08c379a000000000000000000000000000000000000000000000000000000000815260040161234a906132d9565b60405180910390fd5b600073ffffffffffffffffffffffffffffffffffffffff168173ffffffffffffffffffffffffffffffffffffffff1614156123c3576040517f08c379a00000000000000000000000000000000000000000000000000000000081526004016123ba90613279565b60405180910390fd5b6123cc8161273a565b50565b60606000600560008481526020019081526020016000206040518060c001604052908160008201805461240190613574565b80601f016020809104026020016040519081016040528092919081815260200182805461242d90613574565b801561247a5780601f1061244f5761010080835404028352916020019161247a565b820191906000526020600020905b81548152906001019060200180831161245d57829003601f168201915b5050505050815260200160018201805461249390613574565b80601f01602080910402602001604051908101604052809291908181526020018280546124bf90613574565b801561250c5780601f106124e15761010080835404028352916020019161250c565b820191906000526020600020905b8154815290600101906020018083116124ef57829003601f168201915b5050505050815260200160028201805461252590613574565b80601f016020809104026020016040519081016040528092919081815260200182805461255190613574565b801561259e5780601f106125735761010080835404028352916020019161259e565b820191906000526020600020905b81548152906001019060200180831161258157829003601f168201915b505050505081526020016003820180546125b790613574565b80601f01602080910402602001604051908101604052809291908181526020018280546125e390613574565b80156126305780601f1061260557610100808354040283529160200191612630565b820191906000526020600020905b81548152906001019060200180831161261357829003601f168201915b5050505050815260200160048201805461264990613574565b80601f016020809104026020016040519081016040528092919081815260200182805461267590613574565b80156126c25780601f10612697576101008083540402835291602001916126c2565b820191906000526020600020905b8154815290600101906020018083116126a557829003601f168201915b505050505081526020016005820180548060200260200160405190810160405280929190818152602001828054801561271a57602002820191906000526020600020905b815481526020019060010190808311612706575b50505050508152505090508060a00151915050919050565b600033905090565b60008060009054906101000a900473ffffffffffffffffffffffffffffffffffffffff169050816000806101000a81548173ffffffffffffffffffffffffffffffffffffffff021916908373ffffffffffffffffffffffffffffffffffffffff1602179055508173ffffffffffffffffffffffffffffffffffffffff168173ffffffffffffffffffffffffffffffffffffffff167f8be0079c531659141344cd1fd0a4f28419497f9722a3daafe3b4186f6b6457e060405160405180910390a35050565b82805461280a90613574565b90600052602060002090601f01602090048101928261282c5760008555612873565b82601f1061284557805160ff1916838001178555612873565b82800160010185558215612873579182015b82811115612872578251825591602001919060010190612857565b5b50905061288091906128d1565b5090565b8280548282559060005260206000209081019282156128c0579160200282015b828111156128bf5782518255916020019190600101906128a4565b5b5090506128cd91906128d1565b5090565b5b808211156128ea5760008160009055506001016128d2565b5090565b60006129016128fc84613399565b613374565b905080838252602082019050828560208602820111156129245761292361370e565b5b60005b85811015612954578161293a88826129a0565b845260208401935060208301925050600181019050612927565b5050509392505050565b600061297161296c846133c5565b613374565b90508281526020810184848401111561298d5761298c613713565b5b612998848285613532565b509392505050565b6000813590506129af81613878565b92915050565b600082601f8301126129ca576129c9613709565b5b81356129da8482602086016128ee565b91505092915050565b6000813590506129f28161388f565b92915050565b600082601f830112612a0d57612a0c613709565b5b8135612a1d84826020860161295e565b91505092915050565b600081359050612a35816138a6565b92915050565b600060208284031215612a5157612a5061371d565b5b6000612a5f848285016129a0565b91505092915050565b600060208284031215612a7e57612a7d61371d565b5b600082013567ffffffffffffffff811115612a9c57612a9b613718565b5b612aa8848285016129b5565b91505092915050565b600080600080600060a08688031215612acd57612acc61371d565b5b600086013567ffffffffffffffff811115612aeb57612aea613718565b5b612af7888289016129f8565b955050602086013567ffffffffffffffff811115612b1857612b17613718565b5b612b24888289016129f8565b945050604086013567ffffffffffffffff811115612b4557612b44613718565b5b612b51888289016129f8565b935050606086013567ffffffffffffffff811115612b7257612b71613718565b5b612b7e888289016129f8565b925050608086013567ffffffffffffffff811115612b9f57612b9e613718565b5b612bab888289016129f8565b9150509295509295909350565b600080600080600080600080610100898b031215612bd957612bd861371d565b5b600089013567ffffffffffffffff811115612bf757612bf6613718565b5b612c038b828c016129f8565b985050602089013567ffffffffffffffff811115612c2457612c23613718565b5b612c308b828c016129f8565b975050604089013567ffffffffffffffff811115612c5157612c50613718565b5b612c5d8b828c016129f8565b965050606089013567ffffffffffffffff811115612c7e57612c7d613718565b5b612c8a8b828c016129f8565b955050608089013567ffffffffffffffff811115612cab57612caa613718565b5b612cb78b828c016129f8565b94505060a089013567ffffffffffffffff811115612cd857612cd7613718565b5b612ce48b828c016129f8565b93505060c089013567ffffffffffffffff811115612d0557612d04613718565b5b612d118b828c016129f8565b92505060e0612d228b828c016129e3565b9150509295985092959890939650565b600060208284031215612d4857612d4761371d565b5b6000612d5684828501612a26565b91505092915050565b6000612d6b8383612d8f565b60208301905092915050565b6000612d838383612fa6565b60208301905092915050565b612d98816134da565b82525050565b612da7816134da565b82525050565b6000612db882613416565b612dc28185613451565b9350612dcd836133f6565b8060005b83811015612dfe578151612de58882612d5f565b9750612df083613437565b925050600181019050612dd1565b5085935050505092915050565b6000612e1682613421565b612e208185613462565b9350612e2b83613406565b8060005b83811015612e5c578151612e438882612d77565b9750612e4e83613444565b925050600181019050612e2f565b5085935050505092915050565b612e72816134ec565b82525050565b6000612e838261342c565b612e8d8185613473565b9350612e9d818560208601613541565b612ea681613722565b840191505092915050565b6000612ebe602683613473565b9150612ec982613733565b604082019050919050565b6000612ee1601583613473565b9150612eec82613782565b602082019050919050565b6000612f04601783613473565b9150612f0f826137ab565b602082019050919050565b6000612f27602083613473565b9150612f32826137d4565b602082019050919050565b6000612f4a601883613473565b9150612f55826137fd565b602082019050919050565b6000612f6d601583613473565b9150612f7882613826565b602082019050919050565b6000612f90601783613473565b9150612f9b8261384f565b602082019050919050565b612faf81613518565b82525050565b612fbe81613518565b82525050565b6000602082019050612fd96000830184612d9e565b92915050565b60006020820190508181036000830152612ff98184612dad565b905092915050565b6000602082019050818103600083015261301b8184612e0b565b905092915050565b60006020820190506130386000830184612e69565b92915050565b600060a08201905081810360008301526130588188612e78565b9050818103602083015261306c8187612e78565b905081810360408301526130808186612e78565b905081810360608301526130948185612e78565b905081810360808301526130a88184612e78565b90509695505050505050565b600060c08201905081810360008301526130ce8189612e78565b905081810360208301526130e28188612e78565b905081810360408301526130f68187612e78565b9050818103606083015261310a8186612e78565b9050818103608083015261311e8185612e78565b905081810360a08301526131328184612e0b565b9050979650505050505050565b600060c08201905081810360008301526131598189612e78565b9050818103602083015261316d8188612e78565b905081810360408301526131818187612e78565b905081810360608301526131958186612e78565b905081810360808301526131a98185612e78565b905081810360a08301526131bd8184612e78565b9050979650505050505050565b60006101008201905081810360008301526131e5818b612e78565b905081810360208301526131f9818a612e78565b9050818103604083015261320d8189612e78565b905081810360608301526132218188612e78565b905081810360808301526132358187612e78565b905081810360a08301526132498186612e78565b905081810360c083015261325d8185612e78565b905061326c60e0830184612e69565b9998505050505050505050565b6000602082019050818103600083015261329281612eb1565b9050919050565b600060208201905081810360008301526132b281612ed4565b9050919050565b600060208201905081810360008301526132d281612ef7565b9050919050565b600060208201905081810360008301526132f281612f1a565b9050919050565b6000602082019050818103600083015261331281612f3d565b9050919050565b6000602082019050818103600083015261333281612f60565b9050919050565b6000602082019050818103600083015261335281612f83565b9050919050565b600060208201905061336e6000830184612fb5565b92915050565b600061337e61338f565b905061338a82826135a6565b919050565b6000604051905090565b600067ffffffffffffffff8211156133b4576133b36136da565b5b602082029050602081019050919050565b600067ffffffffffffffff8211156133e0576133df6136da565b5b6133e982613722565b9050602081019050919050565b6000819050602082019050919050565b6000819050602082019050919050565b600081519050919050565b600081519050919050565b600081519050919050565b6000602082019050919050565b6000602082019050919050565b600082825260208201905092915050565b600082825260208201905092915050565b600082825260208201905092915050565b600061348f82613518565b915061349a83613518565b9250827fffffffffffffffffffffffffffffffffffffffffffffffffffffffffffffffff038211156134cf576134ce61364d565b5b828201905092915050565b60006134e5826134f8565b9050919050565b60008115159050919050565b600073ffffffffffffffffffffffffffffffffffffffff82169050919050565b6000819050919050565b600063ffffffff82169050919050565b82818337600083830152505050565b60005b8381101561355f578082015181840152602081019050613544565b8381111561356e576000848401525b50505050565b6000600282049050600182168061358c57607f821691505b602082108114156135a05761359f61367c565b5b50919050565b6135af82613722565b810181811067ffffffffffffffff821117156135ce576135cd6136da565b5b80604052505050565b60006135e282613518565b91507fffffffffffffffffffffffffffffffffffffffffffffffffffffffffffffffff8214156136155761361461364d565b5b600182019050919050565b600061362b82613522565b915063ffffffff8214156136425761364161364d565b5b600182019050919050565b7f4e487b7100000000000000000000000000000000000000000000000000000000600052601160045260246000fd5b7f4e487b7100000000000000000000000000000000000000000000000000000000600052602260045260246000fd5b7f4e487b7100000000000000000000000000000000000000000000000000000000600052603260045260246000fd5b7f4e487b7100000000000000000000000000000000000000000000000000000000600052604160045260246000fd5b600080fd5b600080fd5b600080fd5b600080fd5b600080fd5b6000601f19601f8301169050919050565b7f4f776e61626c653a206e6577206f776e657220697320746865207a65726f206160008201527f6464726573730000000000000000000000000000000000000000000000000000602082015250565b7f4e6f7420612076616c6964204176617461722049440000000000000000000000600082015250565b7f4d6574614c696e6b20646f6573206e6f74206578697374000000000000000000600082015250565b7f4f776e61626c653a2063616c6c6572206973206e6f7420746865206f776e6572600082015250565b7f596f752061726520616c72656164792061206d656d6265720000000000000000600082015250565b7f41766174617220646f6573206e6f742065786973740000000000000000000000600082015250565b7f596f75206861766520746f2062652061206d656d626572000000000000000000600082015250565b613881816134da565b811461388c57600080fd5b50565b613898816134ec565b81146138a357600080fd5b50565b6138af81613518565b81146138ba57600080fd5b5056fea2646970667358221220cb05fbd942f1ee6020f71c9598666be1e4ec5d0d325862e119a8557a88e1c82764736f6c63430008070033",
  "linkReferences": {},
  "deployedLinkReferences": {}
}